{
  "_format": "hh-sol-artifact-1",
  "contractName": "ResolutionManager",
  "sourceName": "contracts/ResolutionManager/ResolutionManager.sol",
  "abi": [
    {
      "inputs": [],
      "stateMutability": "nonpayable",
      "type": "constructor"
    },
    {
      "anonymous": false,
      "inputs": [
        {
          "indexed": true,
          "internalType": "address",
          "name": "from",
          "type": "address"
        },
        {
          "indexed": true,
          "internalType": "uint256",
          "name": "resolutionId",
          "type": "uint256"
        },
        {
          "indexed": false,
          "internalType": "uint256",
          "name": "amount",
          "type": "uint256"
        }
      ],
      "name": "DelegateLostVotingPower",
      "type": "event"
    },
    {
      "anonymous": false,
      "inputs": [
        {
          "indexed": false,
          "internalType": "uint8",
          "name": "version",
          "type": "uint8"
        }
      ],
      "name": "Initialized",
      "type": "event"
    },
    {
      "anonymous": false,
      "inputs": [
        {
          "indexed": true,
          "internalType": "address",
          "name": "from",
          "type": "address"
        },
        {
          "indexed": true,
          "internalType": "uint256",
          "name": "resolutionId",
          "type": "uint256"
        }
      ],
      "name": "ResolutionApproved",
      "type": "event"
    },
    {
      "anonymous": false,
      "inputs": [
        {
          "indexed": true,
          "internalType": "address",
          "name": "from",
          "type": "address"
        },
        {
          "indexed": true,
          "internalType": "uint256",
          "name": "resolutionId",
          "type": "uint256"
        }
      ],
      "name": "ResolutionCreated",
      "type": "event"
    },
    {
      "anonymous": false,
      "inputs": [
        {
          "indexed": true,
          "internalType": "address",
          "name": "from",
          "type": "address"
        },
        {
          "indexed": true,
          "internalType": "uint256",
          "name": "resolutionId",
          "type": "uint256"
        }
      ],
      "name": "ResolutionExecuted",
      "type": "event"
    },
    {
      "anonymous": false,
      "inputs": [
        {
          "indexed": true,
          "internalType": "address",
          "name": "from",
          "type": "address"
        },
        {
          "indexed": true,
          "internalType": "uint256",
          "name": "typeIndex",
          "type": "uint256"
        }
      ],
      "name": "ResolutionTypeCreated",
      "type": "event"
    },
    {
      "anonymous": false,
      "inputs": [
        {
          "indexed": true,
          "internalType": "address",
          "name": "from",
          "type": "address"
        },
        {
          "indexed": true,
          "internalType": "uint256",
          "name": "resolutionId",
          "type": "uint256"
        }
      ],
      "name": "ResolutionUpdated",
      "type": "event"
    },
    {
      "anonymous": false,
      "inputs": [
        {
          "indexed": true,
          "internalType": "address",
          "name": "from",
          "type": "address"
        },
        {
          "indexed": true,
          "internalType": "uint256",
          "name": "resolutionId",
          "type": "uint256"
        },
        {
          "indexed": false,
          "internalType": "uint256",
          "name": "votingPower",
          "type": "uint256"
        },
        {
          "indexed": false,
          "internalType": "bool",
          "name": "isYes",
          "type": "bool"
        }
      ],
      "name": "ResolutionVoted",
      "type": "event"
    },
    {
      "anonymous": false,
      "inputs": [
        {
          "indexed": true,
          "internalType": "bytes32",
          "name": "role",
          "type": "bytes32"
        },
        {
          "indexed": true,
          "internalType": "bytes32",
          "name": "previousAdminRole",
          "type": "bytes32"
        },
        {
          "indexed": true,
          "internalType": "bytes32",
          "name": "newAdminRole",
          "type": "bytes32"
        }
      ],
      "name": "RoleAdminChanged",
      "type": "event"
    },
    {
      "anonymous": false,
      "inputs": [
        {
          "indexed": true,
          "internalType": "bytes32",
          "name": "role",
          "type": "bytes32"
        },
        {
          "indexed": true,
          "internalType": "address",
          "name": "account",
          "type": "address"
        },
        {
          "indexed": true,
          "internalType": "address",
          "name": "sender",
          "type": "address"
        }
      ],
      "name": "RoleGranted",
      "type": "event"
    },
    {
      "anonymous": false,
      "inputs": [
        {
          "indexed": true,
          "internalType": "bytes32",
          "name": "role",
          "type": "bytes32"
        },
        {
          "indexed": true,
          "internalType": "address",
          "name": "account",
          "type": "address"
        },
        {
          "indexed": true,
          "internalType": "address",
          "name": "sender",
          "type": "address"
        }
      ],
      "name": "RoleRevoked",
      "type": "event"
    },
    {
      "inputs": [],
      "name": "DEFAULT_ADMIN_ROLE",
      "outputs": [
        {
          "internalType": "bytes32",
          "name": "",
          "type": "bytes32"
        }
      ],
      "stateMutability": "view",
      "type": "function"
    },
    {
      "inputs": [
        {
          "internalType": "string",
          "name": "name",
          "type": "string"
        },
        {
          "internalType": "uint256",
          "name": "quorum",
          "type": "uint256"
        },
        {
          "internalType": "uint256",
          "name": "noticePeriod",
          "type": "uint256"
        },
        {
          "internalType": "uint256",
          "name": "votingPeriod",
          "type": "uint256"
        },
        {
          "internalType": "bool",
          "name": "canBeNegative",
          "type": "bool"
        }
      ],
      "name": "addResolutionType",
      "outputs": [],
      "stateMutability": "nonpayable",
      "type": "function"
    },
    {
      "inputs": [
        {
          "internalType": "uint256",
          "name": "resolutionId",
          "type": "uint256"
        }
      ],
      "name": "approveResolution",
      "outputs": [],
      "stateMutability": "nonpayable",
      "type": "function"
    },
    {
      "inputs": [
        {
          "internalType": "string",
          "name": "dataURI",
          "type": "string"
        },
        {
          "internalType": "uint256",
          "name": "resolutionTypeId",
          "type": "uint256"
        },
        {
          "internalType": "bool",
          "name": "isNegative",
          "type": "bool"
        },
        {
          "internalType": "address[]",
          "name": "executionTo",
          "type": "address[]"
        },
        {
          "internalType": "bytes[]",
          "name": "executionData",
          "type": "bytes[]"
        }
      ],
      "name": "createResolution",
      "outputs": [
        {
          "internalType": "uint256",
          "name": "",
          "type": "uint256"
        }
      ],
      "stateMutability": "nonpayable",
      "type": "function"
    },
    {
      "inputs": [
        {
          "internalType": "uint256",
          "name": "resolutionId",
          "type": "uint256"
        }
      ],
      "name": "executeResolution",
      "outputs": [],
      "stateMutability": "nonpayable",
      "type": "function"
    },
    {
      "inputs": [
        {
          "internalType": "uint256",
          "name": "resolutionId",
          "type": "uint256"
        }
      ],
      "name": "getExecutionDetails",
      "outputs": [
        {
          "internalType": "address[]",
          "name": "",
          "type": "address[]"
        },
        {
          "internalType": "bytes[]",
          "name": "",
          "type": "bytes[]"
        }
      ],
      "stateMutability": "view",
      "type": "function"
    },
    {
      "inputs": [
        {
          "internalType": "uint256",
          "name": "resolutionId",
          "type": "uint256"
        }
      ],
      "name": "getResolutionResult",
      "outputs": [
        {
          "internalType": "bool",
          "name": "",
          "type": "bool"
        }
      ],
      "stateMutability": "view",
      "type": "function"
    },
    {
      "inputs": [
        {
          "internalType": "bytes32",
          "name": "role",
          "type": "bytes32"
        }
      ],
      "name": "getRoleAdmin",
      "outputs": [
        {
          "internalType": "bytes32",
          "name": "",
          "type": "bytes32"
        }
      ],
      "stateMutability": "view",
      "type": "function"
    },
    {
      "inputs": [
        {
          "internalType": "uint256",
          "name": "resolutionId",
          "type": "uint256"
        },
        {
          "internalType": "address",
          "name": "voter",
          "type": "address"
        }
      ],
      "name": "getVoterVote",
      "outputs": [
        {
          "internalType": "bool",
          "name": "isYes",
          "type": "bool"
        },
        {
          "internalType": "bool",
          "name": "hasVoted",
          "type": "bool"
        },
        {
          "internalType": "uint256",
          "name": "votingPower",
          "type": "uint256"
        }
      ],
      "stateMutability": "view",
      "type": "function"
    },
    {
      "inputs": [
        {
          "internalType": "bytes32",
          "name": "role",
          "type": "bytes32"
        },
        {
          "internalType": "address",
          "name": "account",
          "type": "address"
        }
      ],
      "name": "grantRole",
      "outputs": [],
      "stateMutability": "nonpayable",
      "type": "function"
    },
    {
      "inputs": [
        {
          "internalType": "bytes32",
          "name": "role",
          "type": "bytes32"
        },
        {
          "internalType": "address",
          "name": "account",
          "type": "address"
        }
      ],
      "name": "hasRole",
      "outputs": [
        {
          "internalType": "bool",
          "name": "",
          "type": "bool"
        }
      ],
      "stateMutability": "view",
      "type": "function"
    },
    {
      "inputs": [
        {
          "internalType": "contract IShareholderRegistry",
          "name": "shareholderRegistry",
          "type": "address"
        },
        {
          "internalType": "contract ITelediskoToken",
          "name": "telediskoToken",
          "type": "address"
        },
        {
          "internalType": "contract IVoting",
          "name": "voting",
          "type": "address"
        }
      ],
      "name": "initialize",
      "outputs": [],
      "stateMutability": "nonpayable",
      "type": "function"
    },
    {
      "inputs": [
        {
          "internalType": "bytes32",
          "name": "role",
          "type": "bytes32"
        },
        {
          "internalType": "address",
          "name": "account",
          "type": "address"
        }
      ],
      "name": "renounceRole",
      "outputs": [],
      "stateMutability": "nonpayable",
      "type": "function"
    },
    {
      "inputs": [
        {
          "internalType": "uint256",
          "name": "",
          "type": "uint256"
        }
      ],
      "name": "resolutionTypes",
      "outputs": [
        {
          "internalType": "string",
          "name": "name",
          "type": "string"
        },
        {
          "internalType": "uint256",
          "name": "quorum",
          "type": "uint256"
        },
        {
          "internalType": "uint256",
          "name": "noticePeriod",
          "type": "uint256"
        },
        {
          "internalType": "uint256",
          "name": "votingPeriod",
          "type": "uint256"
        },
        {
          "internalType": "bool",
          "name": "canBeNegative",
          "type": "bool"
        }
      ],
      "stateMutability": "view",
      "type": "function"
    },
    {
      "inputs": [
        {
          "internalType": "uint256",
          "name": "",
          "type": "uint256"
        }
      ],
      "name": "resolutions",
      "outputs": [
        {
          "internalType": "string",
          "name": "dataURI",
          "type": "string"
        },
        {
          "internalType": "uint256",
          "name": "resolutionTypeId",
          "type": "uint256"
        },
        {
          "internalType": "uint256",
          "name": "approveTimestamp",
          "type": "uint256"
        },
        {
          "internalType": "uint256",
          "name": "snapshotId",
          "type": "uint256"
        },
        {
          "internalType": "uint256",
          "name": "yesVotesTotal",
          "type": "uint256"
        },
        {
          "internalType": "bool",
          "name": "isNegative",
          "type": "bool"
        },
        {
          "internalType": "uint256",
          "name": "executionTimestamp",
          "type": "uint256"
        }
      ],
      "stateMutability": "view",
      "type": "function"
    },
    {
      "inputs": [
        {
          "internalType": "bytes32",
          "name": "role",
          "type": "bytes32"
        },
        {
          "internalType": "address",
          "name": "account",
          "type": "address"
        }
      ],
      "name": "revokeRole",
      "outputs": [],
      "stateMutability": "nonpayable",
      "type": "function"
    },
    {
      "inputs": [
        {
          "internalType": "contract IShareholderRegistry",
          "name": "shareholderRegistry",
          "type": "address"
        }
      ],
      "name": "setShareholderRegistry",
      "outputs": [],
      "stateMutability": "nonpayable",
      "type": "function"
    },
    {
      "inputs": [
        {
          "internalType": "contract ITelediskoToken",
          "name": "telediskoToken",
          "type": "address"
        }
      ],
      "name": "setTelediskoToken",
      "outputs": [],
      "stateMutability": "nonpayable",
      "type": "function"
    },
    {
      "inputs": [
        {
          "internalType": "contract IVoting",
          "name": "voting",
          "type": "address"
        }
      ],
      "name": "setVoting",
      "outputs": [],
      "stateMutability": "nonpayable",
      "type": "function"
    },
    {
      "inputs": [
        {
          "internalType": "bytes4",
          "name": "interfaceId",
          "type": "bytes4"
        }
      ],
      "name": "supportsInterface",
      "outputs": [
        {
          "internalType": "bool",
          "name": "",
          "type": "bool"
        }
      ],
      "stateMutability": "view",
      "type": "function"
    },
    {
      "inputs": [
        {
          "internalType": "uint256",
          "name": "resolutionId",
          "type": "uint256"
        },
        {
          "internalType": "string",
          "name": "dataURI",
          "type": "string"
        },
        {
          "internalType": "uint256",
          "name": "resolutionTypeId",
          "type": "uint256"
        },
        {
          "internalType": "bool",
          "name": "isNegative",
          "type": "bool"
        },
        {
          "internalType": "address[]",
          "name": "executionTo",
          "type": "address[]"
        },
        {
          "internalType": "bytes[]",
          "name": "executionData",
          "type": "bytes[]"
        }
      ],
      "name": "updateResolution",
      "outputs": [],
      "stateMutability": "nonpayable",
      "type": "function"
    },
    {
      "inputs": [
        {
          "internalType": "uint256",
          "name": "resolutionId",
          "type": "uint256"
        },
        {
          "internalType": "bool",
          "name": "isYes",
          "type": "bool"
        }
      ],
      "name": "vote",
      "outputs": [],
      "stateMutability": "nonpayable",
      "type": "function"
    }
  ],
  "bytecode": "0x60806040523480156200001157600080fd5b50600062000020600162000087565b9050801562000039576000805461ff0019166101001790555b801562000080576000805461ff0019169055604051600181527f7f26b83ff96e1f2b6a682f133852f6798a09c465da95921460cefb38474024989060200160405180910390a15b50620001a8565b60008054610100900460ff161562000120578160ff166001148015620000c05750620000be306200019960201b620020cb1760201c565b155b620001185760405162461bcd60e51b815260206004820152602e6024820152600080516020620033b983398151915260448201526d191e481a5b9a5d1a585b1a5e995960921b60648201526084015b60405180910390fd5b506000919050565b60005460ff8084169116106200017f5760405162461bcd60e51b815260206004820152602e6024820152600080516020620033b983398151915260448201526d191e481a5b9a5d1a585b1a5e995960921b60648201526084016200010f565b506000805460ff191660ff92909216919091179055600190565b6001600160a01b03163b151590565b61320180620001b86000396000f3fe608060405234801561001057600080fd5b50600436106101425760003560e01c80637cbf3b6b116100b8578063a260b1021161007c578063a260b102146102de578063a4b7f5ce146102f1578063c0c53b8b14610317578063c4d079511461032a578063c9d27afe1461033d578063d547741f1461035057600080fd5b80637cbf3b6b1461027957806391d148541461028c578063966482061461029f578063a0aae32f146102c3578063a217fddf146102d657600080fd5b8063325ae67a1161010a578063325ae67a146101ea57806336568abe146101fd5780633ff973d914610210578063444be17914610240578063607bbbf414610253578063610530901461026657600080fd5b806301ffc9a714610147578063245b9a321461016f578063248a9ca31461019057806325bd38ea146101c25780632f2ff15d146101d7575b600080fd5b61015a61015536600461290b565b610363565b60405190151581526020015b60405180910390f35b61018261017d366004612935565b61039a565b6040516101669291906129a6565b6101b461019e366004612935565b6000908152600160208190526040909120015490565b604051908152602001610166565b6101d56101d0366004612af4565b6104f5565b005b6101d56101e5366004612b8c565b610534565b6101b46101f8366004612d32565b61055f565b6101d561020b366004612b8c565b610827565b61022361021e366004612b8c565b6108a5565b604080519315158452911515602084015290820152606001610166565b6101d561024e366004612ddd565b610b7e565b61015a610261366004612935565b610e7c565b6101d5610274366004612935565b610f70565b6101d5610287366004612935565b6111aa565b61015a61029a366004612b8c565b6115c2565b6102b26102ad366004612935565b6115ed565b604051610166959493929190612e93565b6101d56102d1366004612ecc565b6116bf565b6101b4600081565b6101d56102ec366004612ecc565b61170c565b6103046102ff366004612935565b611759565b6040516101669796959493929190612ee9565b6101d5610325366004612f2f565b611821565b6101d5610338366004612ecc565b611a9e565b6101d561034b366004612f7a565b611aeb565b6101d561035e366004612b8c565b6120a5565b60006001600160e01b03198216637965db0b60e01b148061039457506301ffc9a760e01b6001600160e01b03198316145b92915050565b606080600060076000858152602001908152602001600020905080600601816007018180548060200260200160405190810160405280929190818152602001828054801561041157602002820191906000526020600020905b81546001600160a01b031681526001909101906020018083116103f3575b5050505050915080805480602002602001604051908101604052809291908181526020016000905b828210156104e557838290600052602060002001805461045890612f9f565b80601f016020809104026020016040519081016040528092919081815260200182805461048490612f9f565b80156104d15780601f106104a6576101008083540402835291602001916104d1565b820191906000526020600020905b8154815290600101906020018083116104b457829003601f168201915b505050505081526020019060010190610439565b5050505090509250925050915091565b7f7b97752341782019d21e7c1027eedcd270e56f5b672dcc28d53bf58a346002fc61051f816120da565b61052c86868686866120e7565b505050505050565b60008281526001602081905260409091200154610550816120da565b61055a83836121d8565b505050565b6000806006868154811061057557610575612fda565b600091825260209182902060035460408051633bef226f60e21b81529051600590940290920194506001600160a01b031692630ea018f792849263efbc89bc9260048083019391928290030181865afa1580156105d6573d6000803e3d6000fd5b505050506040513d601f19601f820116820180604052508101906105fa9190612ff0565b336040516001600160e01b031960e085901b16815260048101929092526001600160a01b03166024820152604401602060405180830381865afa158015610645573d6000803e3d6000fd5b505050506040513d601f19601f820116820180604052508101906106699190613009565b6106ca5760405162461bcd60e51b815260206004820152602760248201527f5265736f6c7574696f6e3a206f6e6c7920636f6e7472696275746f722063616e6044820152662063726561746560c81b60648201526084015b60405180910390fd5b8415806106db5750600481015460ff165b6107275760405162461bcd60e51b815260206004820152601e60248201527f5265736f6c7574696f6e3a2063616e6e6f74206265206e65676174697665000060448201526064016106c1565b82518451146107785760405162461bcd60e51b815260206004820152601b60248201527f5265736f6c7574696f6e3a206c656e677468206d69736d61746368000000000060448201526064016106c1565b60028054600091826107898361303c565b9091555060008181526007602052604090209091506107a9818b8b6126f9565b506001810188905560058101805460ff191688151517905585516107d6906006830190602089019061277d565b5084516107ec90600783019060208801906127d2565b50604051829033907f5cb605df30db4389dcc26eb7b6ac40cee45e3da41204619ed102f777bf814f8b90600090a35098975050505050505050565b6001600160a01b03811633146108975760405162461bcd60e51b815260206004820152602f60248201527f416363657373436f6e74726f6c3a2063616e206f6e6c792072656e6f756e636560448201526e103937b632b9903337b91039b2b63360891b60648201526084016106c1565b6108a18282612243565b5050565b6000828152600760205260408082206005546003820154925163b652d57b60e01b81526001600160a01b03868116600483015260248201949094528493849392169063b652d57b90604401602060405180830381865afa15801561090d573d6000803e3d6000fd5b505050506040513d601f19601f820116820180604052508101906109319190613009565b6109935760405162461bcd60e51b815260206004820152602d60248201527f5265736f6c7574696f6e3a206163636f756e7420636f756c64206e6f7420766f60448201526c3a32903932b9b7b63aba34b7b760991b60648201526084016106c1565b6001600160a01b038581166000818152600a8401602090815260408083205460098701909252918290205460055460038701549351630fcc97f960e11b815260048101869052602481019490945260ff92831699509116965091929190911690631f992ff290604401602060405180830381865afa158015610a19573d6000803e3d6000fd5b505050506040513d601f19601f82011682018060405250810190610a3d9190613057565b6001600160a01b031614158015610a515750825b15610ada5760048054600383015460405163277166bf60e11b81526001600160a01b03898116948201949094526024810191909152911690634ee2cd7e90604401602060405180830381865afa158015610aaf573d6000803e3d6000fd5b505050506040513d601f19601f82011682018060405250810190610ad39190612ff0565b9150610b76565b6001600160a01b038581166000818152600b8401602052604090819020546005546003860154925163eaeded5f60e01b81526004810194909452602484019290925292169063eaeded5f90604401602060405180830381865afa158015610b45573d6000803e3d6000fd5b505050506040513d601f19601f82011682018060405250810190610b699190612ff0565b610b739190613074565b91505b509250925092565b60008781526007602052604090208151835114610bdd5760405162461bcd60e51b815260206004820152601b60248201527f5265736f6c7574696f6e3a206c656e677468206d69736d61746368000000000060448201526064016106c1565b600281015415610c2f5760405162461bcd60e51b815260206004820152601c60248201527f5265736f6c7574696f6e3a20616c726561647920617070726f7665640000000060448201526064016106c1565b600354604080516306c1c03b60e01b815290516001600160a01b0390921691630ea018f79183916306c1c03b916004808201926020929091908290030181865afa158015610c81573d6000803e3d6000fd5b505050506040513d601f19601f82011682018060405250810190610ca59190612ff0565b336040516001600160e01b031960e085901b16815260048101929092526001600160a01b03166024820152604401602060405180830381865afa158015610cf0573d6000803e3d6000fd5b505050506040513d601f19601f82011682018060405250810190610d149190613009565b610d735760405162461bcd60e51b815260206004820152602a60248201527f5265736f6c7574696f6e3a206f6e6c79206d616e6167696e6720626f6172642060448201526963616e2075706461746560b01b60648201526084016106c1565b600060068681548110610d8857610d88612fda565b90600052602060002090600502019050841580610da95750600481015460ff165b610df55760405162461bcd60e51b815260206004820152601e60248201527f5265736f6c7574696f6e3a2063616e6e6f74206265206e65676174697665000060448201526064016106c1565b610e008289896126f9565b506001820186905560058201805460ff19168615151790558351610e2d906006840190602087019061277d565b508251610e4390600784019060208601906127d2565b50604051899033907fe9fbf855f59ea63a795f1f64e447af0f3316384d1f74ac2685c9cf4231d15ef890600090a3505050505050505050565b60008181526007602052604081206001810154600680548492908110610ea457610ea4612fda565b600091825260208220600580546003870154604051633fadf73b60e01b815260048101919091529390910290910193506001600160a01b031690633fadf73b90602401602060405180830381865afa158015610f04573d6000803e3d6000fd5b505050506040513d601f19601f82011682018060405250810190610f289190612ff0565b90506000818360010154610f3c919061308b565b6004850154610f4c90606461308b565b6005860154911115915060ff16610f635780610f66565b80155b9695505050505050565b600354604080516306c1c03b60e01b815290516001600160a01b0390921691630ea018f79183916306c1c03b916004808201926020929091908290030181865afa158015610fc2573d6000803e3d6000fd5b505050506040513d601f19601f82011682018060405250810190610fe69190612ff0565b336040516001600160e01b031960e085901b16815260048101929092526001600160a01b03166024820152604401602060405180830381865afa158015611031573d6000803e3d6000fd5b505050506040513d601f19601f820116820180604052508101906110559190613009565b6110b55760405162461bcd60e51b815260206004820152602b60248201527f5265736f6c7574696f6e3a206f6e6c79206d616e6167696e6720626f6172642060448201526a63616e20617070726f766560a81b60648201526084016106c1565b60025481106111065760405162461bcd60e51b815260206004820152601a60248201527f5265736f6c7574696f6e3a20646f6573206e6f7420657869737400000000000060448201526064016106c1565b60008181526007602052604090206002810154156111665760405162461bcd60e51b815260206004820152601c60248201527f5265736f6c7574696f6e3a20616c726561647920617070726f7665640000000060448201526064016106c1565b4260028201556111746122aa565b6003820155604051829033907f6f6c6ecde2adc206ce4f038800c59db57260d8a236c7a599438a553d7e4b3aa690600090a35050565b600081815260076020526040902060068101546112095760405162461bcd60e51b815260206004820152601e60248201527f5265736f6c7574696f6e3a206e6f7468696e6720746f2065786563757465000060448201526064016106c1565b60008160020154116112585760405162461bcd60e51b815260206004820152601860248201527714995cdbdb1d5d1a5bdb8e881b9bdd08185c1c1c9bdd995960421b60448201526064016106c1565b6008810154156112aa5760405162461bcd60e51b815260206004820152601c60248201527f5265736f6c7574696f6e3a20616c72656164792065786563757465640000000060448201526064016106c1565b60006112b582612406565b915050804210156113005760405162461bcd60e51b815260206004820152601560248201527414995cdbdb1d5d1a5bdb8e881b9bdd08195b991959605a1b60448201526064016106c1565b61130983610e7c565b61134e5760405162461bcd60e51b815260206004820152601660248201527514995cdbdb1d5d1a5bdb8e881b9bdd081c185cdcd95960521b60448201526064016106c1565b6000826006018054806020026020016040519081016040528092919081815260200182805480156113a857602002820191906000526020600020905b81546001600160a01b0316815260019091019060200180831161138a575b50505050509050600083600701805480602002602001604051908101604052809291908181526020016000905b828210156114815783829060005260206000200180546113f490612f9f565b80601f016020809104026020016040519081016040528092919081815260200182805461142090612f9f565b801561146d5780601f106114425761010080835404028352916020019161146d565b820191906000526020600020905b81548152906001019060200180831161145057829003601f168201915b5050505050815260200190600101906113d5565b505042600888015550909150600090505b825181101561158d5760008382815181106114af576114af612fda565b60200260200101516001600160a01b03168383815181106114d2576114d2612fda565b60200260200101516040516114e791906130aa565b6000604051808303816000865af19150503d8060008114611524576040519150601f19603f3d011682016040523d82523d6000602084013e611529565b606091505b505090508061157a5760405162461bcd60e51b815260206004820152601c60248201527f5265736f6c7574696f6e3a20657865637574696f6e206661696c65640000000060448201526064016106c1565b50806115858161303c565b915050611492565b50604051859033907f14a68c83cab032d52f3c5eb75dcda4cfdc0efbe72a39c36bda85edd44918df0990600090a35050505050565b60009182526001602090815260408084206001600160a01b0393909316845291905290205460ff1690565b600681815481106115fd57600080fd5b906000526020600020906005020160009150905080600001805461162090612f9f565b80601f016020809104026020016040519081016040528092919081815260200182805461164c90612f9f565b80156116995780601f1061166e57610100808354040283529160200191611699565b820191906000526020600020905b81548152906001019060200180831161167c57829003601f168201915b505050506001830154600284015460038501546004909501549394919390925060ff1685565b7f97667070c54ef182b0f5858b034beac1b6f3089aa2d3188bb1e8929f4fa9b9296116e9816120da565b50600480546001600160a01b0319166001600160a01b0392909216919091179055565b7f97667070c54ef182b0f5858b034beac1b6f3089aa2d3188bb1e8929f4fa9b929611736816120da565b50600380546001600160a01b0319166001600160a01b0392909216919091179055565b60076020526000908152604090208054819061177490612f9f565b80601f01602080910402602001604051908101604052809291908181526020018280546117a090612f9f565b80156117ed5780601f106117c2576101008083540402835291602001916117ed565b820191906000526020600020905b8154815290600101906020018083116117d057829003601f168201915b50505060018401546002850154600386015460048701546005880154600890980154969793969295509093509160ff169087565b600061182d6001612460565b90508015611845576000805461ff0019166101001790555b600380546001600160a01b038087166001600160a01b031992831617909255600480548684169083161790556005805492851692909116919091179055611893600061188e3390565b6124e8565b6118c960405180604001604052806009815260200168185b595b991b595b9d60ba1b8152506042621275006207e90060006120e7565b6119036040518060400160405280600d81526020016c6361706974616c4368616e676560981b8152506042621275006207e90060006120e7565b61193a6040518060400160405280600a815260200169383932b1b63ab9b4b7b760b11b815250604b621275006207e90060006120e7565b6119776040518060400160405280601081526020016f333ab73230b6b2b73a30b627ba3432b960811b8152506033621275006207e90060006120e7565b6119af6040518060400160405280600b81526020016a1cda59db9a599a58d85b9d60aa1b81525060336207e9006205460060006120e7565b6119e76040518060400160405280600b81526020016a3234b9b9b7b63aba34b7b760a91b8152506042621275006207e90060006120e7565b611a1b60405180604001604052806007815260200166726f7574696e6560c81b81525060336203f4806202a30060016120e7565b611a4d6040518060400160405280600781526020016667656e6573697360c81b815250606460006206978060006120e7565b60016002558015611a98576000805461ff0019169055604051600181527f7f26b83ff96e1f2b6a682f133852f6798a09c465da95921460cefb38474024989060200160405180910390a15b50505050565b7f97667070c54ef182b0f5858b034beac1b6f3089aa2d3188bb1e8929f4fa9b929611ac8816120da565b50600580546001600160a01b0319166001600160a01b0392909216919091179055565b60008281526007602052604090206005546001600160a01b031663b652d57b3360038401546040516001600160e01b031960e085901b1681526001600160a01b0390921660048301526024820152604401602060405180830381865afa158015611b59573d6000803e3d6000fd5b505050506040513d601f19601f82011682018060405250810190611b7d9190613009565b611bc95760405162461bcd60e51b815260206004820152601f60248201527f5265736f6c7574696f6e3a206163636f756e742063616e6e6f7420766f74650060448201526064016106c1565b336000908152600a8201602052604090205460ff161515821515141580611c02575033600090815260098201602052604090205460ff16155b611c595760405162461bcd60e51b815260206004820152602260248201527f5265736f6c7574696f6e3a2063616e2774207265706561742073616d6520766f604482015261746560f01b60648201526084016106c1565b6000816002015411611ca85760405162461bcd60e51b815260206004820152601860248201527714995cdbdb1d5d1a5bdb8e881b9bdd08185c1c1c9bdd995960421b60448201526064016106c1565b600080611cb483612406565b91509150814210158015611cc757508042105b611d135760405162461bcd60e51b815260206004820152601760248201527f5265736f6c7574696f6e3a206e6f7420766f7461626c6500000000000000000060448201526064016106c1565b6005546000906001600160a01b031663eaeded5f3360038701546040516001600160e01b031960e085901b1681526001600160a01b0390921660048301526024820152604401602060405180830381865afa158015611d76573d6000803e3d6000fd5b505050506040513d601f19601f82011682018060405250810190611d9a9190612ff0565b6005549091506000906001600160a01b0316631f992ff23360038801546040516001600160e01b031960e085901b1681526001600160a01b0390921660048301526024820152604401602060405180830381865afa158015611e00573d6000803e3d6000fd5b505050506040513d601f19601f82011682018060405250810190611e249190613057565b90506001600160a01b0381163314611f90576004546001600160a01b0316634ee2cd7e3360038801546040516001600160e01b031960e085901b1681526001600160a01b0390921660048301526024820152604401602060405180830381865afa158015611e96573d6000803e3d6000fd5b505050506040513d601f19601f82011682018060405250810190611eba9190612ff0565b6001600160a01b038216600090815260098701602052604090205490925060ff168015611f0157506001600160a01b0381166000908152600a8601602052604090205460ff165b15611f205781856004016000828254611f1a9190613074565b90915550505b6001600160a01b0381166000908152600b8601602052604081208054849290611f4a9084906130c6565b909155505060405182815287906001600160a01b038316907f2a753d47dc7411744b037903d0f3d1273bd5046e19f509d13d0a896bb6dca8969060200160405180910390a35b336000908152600b86016020526040902054611fac9083613074565b9150858015611fcd5750336000908152600a8601602052604090205460ff16155b15611ff15781856004016000828254611fe691906130c6565b909155506120259050565b336000908152600a8601602052604090205460ff1615612025578185600401600082825461201f9190613074565b90915550505b604080518381528715156020820152889133917fe38278e9a4991080fd5c68b1594173a60b3db30bd509a1fe3d0b68f9fcb2e0ab910160405180910390a3505033600090815260098401602090815260408083208054600160ff1991821617909155600a9096019091529020805490931693151593909317909155505050565b600082815260016020819052604090912001546120c1816120da565b61055a8383612243565b6001600160a01b03163b151590565b6120e481336124f2565b50565b6040805160a08101825286815260208082018790529181018590526060810184905282151560808201526006805460018101825560009190915281518051929360059092027ff652222313e28459528d920b65115c16c04f3efc82aaedc97be59f3f377c0d3f019261215c928492019061282b565b50602082015160018281019190915560408301516002830155606083015160038301556080909201516004909101805460ff19169115159190911790556006546121a69190613074565b60405133907fc9b91babd5124906e4cca98d9386ddac639dfee98b2bd33a27dbb5c048bd855a90600090a35050505050565b6121e282826115c2565b6108a15760008281526001602081815260408084206001600160a01b0386168086529252808420805460ff19169093179092559051339285917f2f8788117e7eff1d82e926ec794901d17c78024a50270940304540a733656f0d9190a45050565b61224d82826115c2565b156108a15760008281526001602090815260408083206001600160a01b0385168085529252808320805460ff1916905551339285917ff6391f5c32d9c69d2a47ea670b442974b53935d1edc7fd64eb21e047a839171b9190a45050565b60035460408051634b88b8ad60e11b815290516000926001600160a01b031691639711715a916004808301926020929190829003018187875af11580156122f5573d6000803e3d6000fd5b505050506040513d601f19601f820116820180604052508101906123199190612ff0565b506004805460408051634b88b8ad60e11b815290516001600160a01b0390921692639711715a92828201926020929082900301816000875af1158015612363573d6000803e3d6000fd5b505050506040513d601f19601f820116820180604052508101906123879190612ff0565b50600560009054906101000a90046001600160a01b03166001600160a01b0316639711715a6040518163ffffffff1660e01b81526004016020604051808303816000875af11580156123dd573d6000803e3d6000fd5b505050506040513d601f19601f820116820180604052508101906124019190612ff0565b905090565b6000806000600684600101548154811061242257612422612fda565b906000526020600020906005020190508060020154846002015461244691906130c6565b925080600301548361245891906130c6565b915050915091565b60008054610100900460ff16156124a7578160ff1660011480156124835750303b155b61249f5760405162461bcd60e51b81526004016106c1906130de565b506000919050565b60005460ff8084169116106124ce5760405162461bcd60e51b81526004016106c1906130de565b506000805460ff191660ff92909216919091179055600190565b6108a182826121d8565b6124fc82826115c2565b6108a157612514816001600160a01b03166014612556565b61251f836020612556565b60405160200161253092919061312c565b60408051601f198184030181529082905262461bcd60e51b82526106c1916004016131a1565b6060600061256583600261308b565b6125709060026130c6565b67ffffffffffffffff81111561258857612588612a47565b6040519080825280601f01601f1916602001820160405280156125b2576020820181803683370190505b509050600360fc1b816000815181106125cd576125cd612fda565b60200101906001600160f81b031916908160001a905350600f60fb1b816001815181106125fc576125fc612fda565b60200101906001600160f81b031916908160001a905350600061262084600261308b565b61262b9060016130c6565b90505b60018111156126a3576f181899199a1a9b1b9c1cb0b131b232b360811b85600f166010811061265f5761265f612fda565b1a60f81b82828151811061267557612675612fda565b60200101906001600160f81b031916908160001a90535060049490941c9361269c816131b4565b905061262e565b5083156126f25760405162461bcd60e51b815260206004820181905260248201527f537472696e67733a20686578206c656e67746820696e73756666696369656e7460448201526064016106c1565b9392505050565b82805461270590612f9f565b90600052602060002090601f016020900481019282612727576000855561276d565b82601f106127405782800160ff1982351617855561276d565b8280016001018555821561276d579182015b8281111561276d578235825591602001919060010190612752565b5061277992915061289f565b5090565b82805482825590600052602060002090810192821561276d579160200282015b8281111561276d57825182546001600160a01b0319166001600160a01b0390911617825560209092019160019091019061279d565b82805482825590600052602060002090810192821561281f579160200282015b8281111561281f578251805161280f91849160209091019061282b565b50916020019190600101906127f2565b506127799291506128b4565b82805461283790612f9f565b90600052602060002090601f016020900481019282612859576000855561276d565b82601f1061287257805160ff191683800117855561276d565b8280016001018555821561276d579182015b8281111561276d578251825591602001919060010190612884565b5b8082111561277957600081556001016128a0565b808211156127795760006128c882826128d1565b506001016128b4565b5080546128dd90612f9f565b6000825580601f106128ed575050565b601f0160209004906000526020600020908101906120e4919061289f565b60006020828403121561291d57600080fd5b81356001600160e01b0319811681146126f257600080fd5b60006020828403121561294757600080fd5b5035919050565b60005b83811015612969578181015183820152602001612951565b83811115611a985750506000910152565b6000815180845261299281602086016020860161294e565b601f01601f19169290920160200192915050565b604080825283519082018190526000906020906060840190828701845b828110156129e85781516001600160a01b0316845292840192908401906001016129c3565b50505083810382850152845180825282820190600581901b8301840187850160005b83811015612a3857601f19868403018552612a2683835161297a565b94870194925090860190600101612a0a565b50909998505050505050505050565b634e487b7160e01b600052604160045260246000fd5b604051601f8201601f1916810167ffffffffffffffff81118282101715612a8657612a86612a47565b604052919050565b600067ffffffffffffffff831115612aa857612aa8612a47565b612abb601f8401601f1916602001612a5d565b9050828152838383011115612acf57600080fd5b828260208301376000602084830101529392505050565b80151581146120e457600080fd5b600080600080600060a08688031215612b0c57600080fd5b853567ffffffffffffffff811115612b2357600080fd5b8601601f81018813612b3457600080fd5b612b4388823560208401612a8e565b9550506020860135935060408601359250606086013591506080860135612b6981612ae6565b809150509295509295909350565b6001600160a01b03811681146120e457600080fd5b60008060408385031215612b9f57600080fd5b823591506020830135612bb181612b77565b809150509250929050565b60008083601f840112612bce57600080fd5b50813567ffffffffffffffff811115612be657600080fd5b602083019150836020828501011115612bfe57600080fd5b9250929050565b600067ffffffffffffffff821115612c1f57612c1f612a47565b5060051b60200190565b600082601f830112612c3a57600080fd5b81356020612c4f612c4a83612c05565b612a5d565b82815260059290921b84018101918181019086841115612c6e57600080fd5b8286015b84811015612c92578035612c8581612b77565b8352918301918301612c72565b509695505050505050565b600082601f830112612cae57600080fd5b81356020612cbe612c4a83612c05565b82815260059290921b84018101918181019086841115612cdd57600080fd5b8286015b84811015612c9257803567ffffffffffffffff811115612d015760008081fd5b8701603f81018913612d135760008081fd5b612d24898683013560408401612a8e565b845250918301918301612ce1565b60008060008060008060a08789031215612d4b57600080fd5b863567ffffffffffffffff80821115612d6357600080fd5b612d6f8a838b01612bbc565b90985096506020890135955060408901359150612d8b82612ae6565b90935060608801359080821115612da157600080fd5b612dad8a838b01612c29565b93506080890135915080821115612dc357600080fd5b50612dd089828a01612c9d565b9150509295509295509295565b600080600080600080600060c0888a031215612df857600080fd5b87359650602088013567ffffffffffffffff80821115612e1757600080fd5b612e238b838c01612bbc565b909850965060408a0135955060608a01359150612e3f82612ae6565b90935060808901359080821115612e5557600080fd5b612e618b838c01612c29565b935060a08a0135915080821115612e7757600080fd5b50612e848a828b01612c9d565b91505092959891949750929550565b60a081526000612ea660a083018861297a565b905085602083015284604083015283606083015282151560808301529695505050505050565b600060208284031215612ede57600080fd5b81356126f281612b77565b60e081526000612efc60e083018a61297a565b602083019890985250604081019590955260608501939093526080840191909152151560a083015260c090910152919050565b600080600060608486031215612f4457600080fd5b8335612f4f81612b77565b92506020840135612f5f81612b77565b91506040840135612f6f81612b77565b809150509250925092565b60008060408385031215612f8d57600080fd5b823591506020830135612bb181612ae6565b600181811c90821680612fb357607f821691505b60208210811415612fd457634e487b7160e01b600052602260045260246000fd5b50919050565b634e487b7160e01b600052603260045260246000fd5b60006020828403121561300257600080fd5b5051919050565b60006020828403121561301b57600080fd5b81516126f281612ae6565b634e487b7160e01b600052601160045260246000fd5b600060001982141561305057613050613026565b5060010190565b60006020828403121561306957600080fd5b81516126f281612b77565b60008282101561308657613086613026565b500390565b60008160001904831182151516156130a5576130a5613026565b500290565b600082516130bc81846020870161294e565b9190910192915050565b600082198211156130d9576130d9613026565b500190565b6020808252602e908201527f496e697469616c697a61626c653a20636f6e747261637420697320616c72656160408201526d191e481a5b9a5d1a585b1a5e995960921b606082015260800190565b7f416363657373436f6e74726f6c3a206163636f756e742000000000000000000081526000835161316481601785016020880161294e565b7001034b99036b4b9b9b4b733903937b6329607d1b601791840191820152835161319581602884016020880161294e565b01602801949350505050565b6020815260006126f2602083018461297a565b6000816131c3576131c3613026565b50600019019056fea26469706673582212205c9d5ef63e53350d2eaa51dfdb281b4b40ad732cff4a3eab9a7f9ae6c29a065264736f6c634300080b0033496e697469616c697a61626c653a20636f6e747261637420697320616c726561",
  "linkReferences": {},
  "deployedLinkReferences": {}
}