{
  "_format": "hh-sol-artifact-1",
  "contractName": "ResolutionManager",
  "sourceName": "contracts/ResolutionManager/ResolutionManager.sol",
  "abi": [
    {
      "inputs": [],
      "stateMutability": "nonpayable",
      "type": "constructor"
    },
    {
      "anonymous": false,
      "inputs": [
        {
          "indexed": true,
          "internalType": "address",
          "name": "from",
          "type": "address"
        },
        {
          "indexed": true,
          "internalType": "uint256",
          "name": "resolutionId",
          "type": "uint256"
        },
        {
          "indexed": false,
          "internalType": "uint256",
          "name": "amount",
          "type": "uint256"
        }
      ],
      "name": "DelegateLostVotingPower",
      "type": "event"
    },
    {
      "anonymous": false,
      "inputs": [
        {
          "indexed": false,
          "internalType": "uint8",
          "name": "version",
          "type": "uint8"
        }
      ],
      "name": "Initialized",
      "type": "event"
    },
    {
      "anonymous": false,
      "inputs": [
        {
          "indexed": true,
          "internalType": "address",
          "name": "from",
          "type": "address"
        },
        {
          "indexed": true,
          "internalType": "uint256",
          "name": "resolutionId",
          "type": "uint256"
        }
      ],
      "name": "ResolutionApproved",
      "type": "event"
    },
    {
      "anonymous": false,
      "inputs": [
        {
          "indexed": true,
          "internalType": "address",
          "name": "from",
          "type": "address"
        },
        {
          "indexed": true,
          "internalType": "uint256",
          "name": "resolutionId",
          "type": "uint256"
        }
      ],
      "name": "ResolutionCreated",
      "type": "event"
    },
    {
      "anonymous": false,
      "inputs": [
        {
          "indexed": true,
          "internalType": "address",
          "name": "from",
          "type": "address"
        },
        {
          "indexed": true,
          "internalType": "uint256",
          "name": "resolutionId",
          "type": "uint256"
        }
      ],
      "name": "ResolutionExecuted",
      "type": "event"
    },
    {
      "anonymous": false,
      "inputs": [
        {
          "indexed": true,
          "internalType": "address",
          "name": "from",
          "type": "address"
        },
        {
          "indexed": true,
          "internalType": "uint256",
          "name": "resolutionId",
          "type": "uint256"
        }
      ],
      "name": "ResolutionRejected",
      "type": "event"
    },
    {
      "anonymous": false,
      "inputs": [
        {
          "indexed": true,
          "internalType": "address",
          "name": "from",
          "type": "address"
        },
        {
          "indexed": true,
          "internalType": "uint256",
          "name": "typeIndex",
          "type": "uint256"
        }
      ],
      "name": "ResolutionTypeCreated",
      "type": "event"
    },
    {
      "anonymous": false,
      "inputs": [
        {
          "indexed": true,
          "internalType": "address",
          "name": "from",
          "type": "address"
        },
        {
          "indexed": true,
          "internalType": "uint256",
          "name": "resolutionId",
          "type": "uint256"
        }
      ],
      "name": "ResolutionUpdated",
      "type": "event"
    },
    {
      "anonymous": false,
      "inputs": [
        {
          "indexed": true,
          "internalType": "address",
          "name": "from",
          "type": "address"
        },
        {
          "indexed": true,
          "internalType": "uint256",
          "name": "resolutionId",
          "type": "uint256"
        },
        {
          "indexed": false,
          "internalType": "uint256",
          "name": "votingPower",
          "type": "uint256"
        },
        {
          "indexed": false,
          "internalType": "bool",
          "name": "isYes",
          "type": "bool"
        }
      ],
      "name": "ResolutionVoted",
      "type": "event"
    },
    {
      "anonymous": false,
      "inputs": [
        {
          "indexed": true,
          "internalType": "bytes32",
          "name": "role",
          "type": "bytes32"
        },
        {
          "indexed": true,
          "internalType": "bytes32",
          "name": "previousAdminRole",
          "type": "bytes32"
        },
        {
          "indexed": true,
          "internalType": "bytes32",
          "name": "newAdminRole",
          "type": "bytes32"
        }
      ],
      "name": "RoleAdminChanged",
      "type": "event"
    },
    {
      "anonymous": false,
      "inputs": [
        {
          "indexed": true,
          "internalType": "bytes32",
          "name": "role",
          "type": "bytes32"
        },
        {
          "indexed": true,
          "internalType": "address",
          "name": "account",
          "type": "address"
        },
        {
          "indexed": true,
          "internalType": "address",
          "name": "sender",
          "type": "address"
        }
      ],
      "name": "RoleGranted",
      "type": "event"
    },
    {
      "anonymous": false,
      "inputs": [
        {
          "indexed": true,
          "internalType": "bytes32",
          "name": "role",
          "type": "bytes32"
        },
        {
          "indexed": true,
          "internalType": "address",
          "name": "account",
          "type": "address"
        },
        {
          "indexed": true,
          "internalType": "address",
          "name": "sender",
          "type": "address"
        }
      ],
      "name": "RoleRevoked",
      "type": "event"
    },
    {
      "inputs": [],
      "name": "DEFAULT_ADMIN_ROLE",
      "outputs": [
        {
          "internalType": "bytes32",
          "name": "",
          "type": "bytes32"
        }
      ],
      "stateMutability": "view",
      "type": "function"
    },
    {
      "inputs": [
        {
          "internalType": "string",
          "name": "name",
          "type": "string"
        },
        {
          "internalType": "uint256",
          "name": "quorum",
          "type": "uint256"
        },
        {
          "internalType": "uint256",
          "name": "noticePeriod",
          "type": "uint256"
        },
        {
          "internalType": "uint256",
          "name": "votingPeriod",
          "type": "uint256"
        },
        {
          "internalType": "bool",
          "name": "canBeNegative",
          "type": "bool"
        }
      ],
      "name": "addResolutionType",
      "outputs": [],
      "stateMutability": "nonpayable",
      "type": "function"
    },
    {
      "inputs": [
        {
          "internalType": "uint256",
          "name": "resolutionId",
          "type": "uint256"
        }
      ],
      "name": "approveResolution",
      "outputs": [],
      "stateMutability": "nonpayable",
      "type": "function"
    },
    {
      "inputs": [
        {
          "internalType": "string",
          "name": "dataURI",
          "type": "string"
        },
        {
          "internalType": "uint256",
          "name": "resolutionTypeId",
          "type": "uint256"
        },
        {
          "internalType": "bool",
          "name": "isNegative",
          "type": "bool"
        },
        {
          "internalType": "address[]",
          "name": "executionTo",
          "type": "address[]"
        },
        {
          "internalType": "bytes[]",
          "name": "executionData",
          "type": "bytes[]"
        }
      ],
      "name": "createResolution",
      "outputs": [
        {
          "internalType": "uint256",
          "name": "",
          "type": "uint256"
        }
      ],
      "stateMutability": "nonpayable",
      "type": "function"
    },
    {
      "inputs": [
        {
          "internalType": "uint256",
          "name": "resolutionId",
          "type": "uint256"
        }
      ],
      "name": "executeResolution",
      "outputs": [],
      "stateMutability": "nonpayable",
      "type": "function"
    },
    {
      "inputs": [
        {
          "internalType": "uint256",
          "name": "resolutionId",
          "type": "uint256"
        }
      ],
      "name": "getExecutionDetails",
      "outputs": [
        {
          "internalType": "address[]",
          "name": "",
          "type": "address[]"
        },
        {
          "internalType": "bytes[]",
          "name": "",
          "type": "bytes[]"
        }
      ],
      "stateMutability": "view",
      "type": "function"
    },
    {
      "inputs": [
        {
          "internalType": "uint256",
          "name": "resolutionId",
          "type": "uint256"
        }
      ],
      "name": "getResolutionResult",
      "outputs": [
        {
          "internalType": "bool",
          "name": "",
          "type": "bool"
        }
      ],
      "stateMutability": "view",
      "type": "function"
    },
    {
      "inputs": [
        {
          "internalType": "bytes32",
          "name": "role",
          "type": "bytes32"
        }
      ],
      "name": "getRoleAdmin",
      "outputs": [
        {
          "internalType": "bytes32",
          "name": "",
          "type": "bytes32"
        }
      ],
      "stateMutability": "view",
      "type": "function"
    },
    {
      "inputs": [
        {
          "internalType": "uint256",
          "name": "resolutionId",
          "type": "uint256"
        },
        {
          "internalType": "address",
          "name": "voter",
          "type": "address"
        }
      ],
      "name": "getVoterVote",
      "outputs": [
        {
          "internalType": "bool",
          "name": "isYes",
          "type": "bool"
        },
        {
          "internalType": "bool",
          "name": "hasVoted",
          "type": "bool"
        },
        {
          "internalType": "uint256",
          "name": "votingPower",
          "type": "uint256"
        }
      ],
      "stateMutability": "view",
      "type": "function"
    },
    {
      "inputs": [
        {
          "internalType": "bytes32",
          "name": "role",
          "type": "bytes32"
        },
        {
          "internalType": "address",
          "name": "account",
          "type": "address"
        }
      ],
      "name": "grantRole",
      "outputs": [],
      "stateMutability": "nonpayable",
      "type": "function"
    },
    {
      "inputs": [
        {
          "internalType": "bytes32",
          "name": "role",
          "type": "bytes32"
        },
        {
          "internalType": "address",
          "name": "account",
          "type": "address"
        }
      ],
      "name": "hasRole",
      "outputs": [
        {
          "internalType": "bool",
          "name": "",
          "type": "bool"
        }
      ],
      "stateMutability": "view",
      "type": "function"
    },
    {
      "inputs": [
        {
          "internalType": "contract IShareholderRegistry",
          "name": "shareholderRegistry",
          "type": "address"
        },
        {
          "internalType": "contract ITelediskoToken",
          "name": "telediskoToken",
          "type": "address"
        },
        {
          "internalType": "contract IVoting",
          "name": "voting",
          "type": "address"
        }
      ],
      "name": "initialize",
      "outputs": [],
      "stateMutability": "nonpayable",
      "type": "function"
    },
    {
      "inputs": [
        {
          "internalType": "uint256",
          "name": "resolutionId",
          "type": "uint256"
        }
      ],
      "name": "rejectResolution",
      "outputs": [],
      "stateMutability": "nonpayable",
      "type": "function"
    },
    {
      "inputs": [
        {
          "internalType": "bytes32",
          "name": "role",
          "type": "bytes32"
        },
        {
          "internalType": "address",
          "name": "account",
          "type": "address"
        }
      ],
      "name": "renounceRole",
      "outputs": [],
      "stateMutability": "nonpayable",
      "type": "function"
    },
    {
      "inputs": [
        {
          "internalType": "uint256",
          "name": "",
          "type": "uint256"
        }
      ],
      "name": "resolutionTypes",
      "outputs": [
        {
          "internalType": "string",
          "name": "name",
          "type": "string"
        },
        {
          "internalType": "uint256",
          "name": "quorum",
          "type": "uint256"
        },
        {
          "internalType": "uint256",
          "name": "noticePeriod",
          "type": "uint256"
        },
        {
          "internalType": "uint256",
          "name": "votingPeriod",
          "type": "uint256"
        },
        {
          "internalType": "bool",
          "name": "canBeNegative",
          "type": "bool"
        }
      ],
      "stateMutability": "view",
      "type": "function"
    },
    {
      "inputs": [
        {
          "internalType": "uint256",
          "name": "",
          "type": "uint256"
        }
      ],
      "name": "resolutions",
      "outputs": [
        {
          "internalType": "string",
          "name": "dataURI",
          "type": "string"
        },
        {
          "internalType": "uint256",
          "name": "resolutionTypeId",
          "type": "uint256"
        },
        {
          "internalType": "uint256",
          "name": "approveTimestamp",
          "type": "uint256"
        },
        {
          "internalType": "uint256",
          "name": "snapshotId",
          "type": "uint256"
        },
        {
          "internalType": "uint256",
          "name": "yesVotesTotal",
          "type": "uint256"
        },
        {
          "internalType": "bool",
          "name": "isNegative",
          "type": "bool"
        },
        {
          "internalType": "uint256",
          "name": "rejectionTimestamp",
          "type": "uint256"
        },
        {
          "internalType": "uint256",
          "name": "executionTimestamp",
          "type": "uint256"
        }
      ],
      "stateMutability": "view",
      "type": "function"
    },
    {
      "inputs": [
        {
          "internalType": "bytes32",
          "name": "role",
          "type": "bytes32"
        },
        {
          "internalType": "address",
          "name": "account",
          "type": "address"
        }
      ],
      "name": "revokeRole",
      "outputs": [],
      "stateMutability": "nonpayable",
      "type": "function"
    },
    {
      "inputs": [
        {
          "internalType": "contract IShareholderRegistry",
          "name": "shareholderRegistry",
          "type": "address"
        }
      ],
      "name": "setShareholderRegistry",
      "outputs": [],
      "stateMutability": "nonpayable",
      "type": "function"
    },
    {
      "inputs": [
        {
          "internalType": "contract ITelediskoToken",
          "name": "telediskoToken",
          "type": "address"
        }
      ],
      "name": "setTelediskoToken",
      "outputs": [],
      "stateMutability": "nonpayable",
      "type": "function"
    },
    {
      "inputs": [
        {
          "internalType": "contract IVoting",
          "name": "voting",
          "type": "address"
        }
      ],
      "name": "setVoting",
      "outputs": [],
      "stateMutability": "nonpayable",
      "type": "function"
    },
    {
      "inputs": [
        {
          "internalType": "bytes4",
          "name": "interfaceId",
          "type": "bytes4"
        }
      ],
      "name": "supportsInterface",
      "outputs": [
        {
          "internalType": "bool",
          "name": "",
          "type": "bool"
        }
      ],
      "stateMutability": "view",
      "type": "function"
    },
    {
      "inputs": [
        {
          "internalType": "uint256",
          "name": "resolutionId",
          "type": "uint256"
        },
        {
          "internalType": "string",
          "name": "dataURI",
          "type": "string"
        },
        {
          "internalType": "uint256",
          "name": "resolutionTypeId",
          "type": "uint256"
        },
        {
          "internalType": "bool",
          "name": "isNegative",
          "type": "bool"
        },
        {
          "internalType": "address[]",
          "name": "executionTo",
          "type": "address[]"
        },
        {
          "internalType": "bytes[]",
          "name": "executionData",
          "type": "bytes[]"
        }
      ],
      "name": "updateResolution",
      "outputs": [],
      "stateMutability": "nonpayable",
      "type": "function"
    },
    {
      "inputs": [
        {
          "internalType": "uint256",
          "name": "resolutionId",
          "type": "uint256"
        },
        {
          "internalType": "bool",
          "name": "isYes",
          "type": "bool"
        }
      ],
      "name": "vote",
      "outputs": [],
      "stateMutability": "nonpayable",
      "type": "function"
    }
  ],
  "bytecode": "0x60806040523480156200001157600080fd5b50600062000020600162000087565b9050801562000039576000805461ff0019166101001790555b801562000080576000805461ff0019169055604051600181527f7f26b83ff96e1f2b6a682f133852f6798a09c465da95921460cefb38474024989060200160405180910390a15b50620001a8565b60008054610100900460ff161562000120578160ff166001148015620000c05750620000be306200019960201b620023261760201c565b155b620001185760405162461bcd60e51b815260206004820152602e60248201526000805160206200368983398151915260448201526d191e481a5b9a5d1a585b1a5e995960921b60648201526084015b60405180910390fd5b506000919050565b60005460ff8084169116106200017f5760405162461bcd60e51b815260206004820152602e60248201526000805160206200368983398151915260448201526d191e481a5b9a5d1a585b1a5e995960921b60648201526084016200010f565b506000805460ff191660ff92909216919091179055600190565b6001600160a01b03163b151590565b6134d180620001b86000396000f3fe608060405234801561001057600080fd5b506004361061014d5760003560e01c80637cbf3b6b116100c3578063a4b7f5ce1161007c578063a4b7f5ce146102fc578063c0c53b8b14610323578063c4d0795114610336578063c9d27afe14610349578063d547741f1461035c578063fd2c97191461036f57600080fd5b80637cbf3b6b1461028457806391d148541461029757806396648206146102aa578063a0aae32f146102ce578063a217fddf146102e1578063a260b102146102e957600080fd5b8063325ae67a11610115578063325ae67a146101f557806336568abe146102085780633ff973d91461021b578063444be1791461024b578063607bbbf41461025e578063610530901461027157600080fd5b806301ffc9a714610152578063245b9a321461017a578063248a9ca31461019b57806325bd38ea146101cd5780632f2ff15d146101e2575b600080fd5b610165610160366004612b66565b610382565b60405190151581526020015b60405180910390f35b61018d610188366004612b90565b6103b9565b604051610171929190612c01565b6101bf6101a9366004612b90565b6000908152600160208190526040909120015490565b604051908152602001610171565b6101e06101db366004612d4f565b610509565b005b6101e06101f0366004612de7565b610548565b6101bf610203366004612f8d565b610573565b6101e0610216366004612de7565b61083b565b61022e610229366004612de7565b6108b9565b604080519315158452911515602084015290820152606001610171565b6101e0610259366004613038565b610b92565b61016561026c366004612b90565b610e95565b6101e061027f366004612b90565b610f89565b6101e0610292366004612b90565b6111ca565b6101656102a5366004612de7565b6115e4565b6102bd6102b8366004612b90565b61160f565b6040516101719594939291906130ee565b6101e06102dc366004613127565b6116e1565b6101bf600081565b6101e06102f7366004613127565b61172e565b61030f61030a366004612b90565b61177b565b604051610171989796959493929190613144565b6101e0610331366004613191565b61184a565b6101e0610344366004613127565b611ac7565b6101e06103573660046131dc565b611b14565b6101e061036a366004612de7565b6120ce565b6101e061037d366004612b90565b6120f4565b60006001600160e01b03198216637965db0b60e01b14806103b357506301ffc9a760e01b6001600160e01b03198316145b92915050565b60008181526007602081815260409283902091820180548451818402810184019095528085526060948594936008850192849183018282801561042557602002820191906000526020600020905b81546001600160a01b03168152600190910190602001808311610407575b5050505050915080805480602002602001604051908101604052809291908181526020016000905b828210156104f957838290600052602060002001805461046c90613201565b80601f016020809104026020016040519081016040528092919081815260200182805461049890613201565b80156104e55780601f106104ba576101008083540402835291602001916104e5565b820191906000526020600020905b8154815290600101906020018083116104c857829003601f168201915b50505050508152602001906001019061044d565b5050505090509250925050915091565b7f7b97752341782019d21e7c1027eedcd270e56f5b672dcc28d53bf58a346002fc61053381612335565b6105408686868686612342565b505050505050565b6000828152600160208190526040909120015461056481612335565b61056e8383612433565b505050565b600080600686815481106105895761058961323c565b600091825260209182902060035460408051633bef226f60e21b81529051600590940290920194506001600160a01b031692630ea018f792849263efbc89bc9260048083019391928290030181865afa1580156105ea573d6000803e3d6000fd5b505050506040513d601f19601f8201168201806040525081019061060e9190613252565b336040516001600160e01b031960e085901b16815260048101929092526001600160a01b03166024820152604401602060405180830381865afa158015610659573d6000803e3d6000fd5b505050506040513d601f19601f8201168201806040525081019061067d919061326b565b6106de5760405162461bcd60e51b815260206004820152602760248201527f5265736f6c7574696f6e3a206f6e6c7920636f6e7472696275746f722063616e6044820152662063726561746560c81b60648201526084015b60405180910390fd5b8415806106ef5750600481015460ff165b61073b5760405162461bcd60e51b815260206004820152601e60248201527f5265736f6c7574696f6e3a2063616e6e6f74206265206e65676174697665000060448201526064016106d5565b825184511461078c5760405162461bcd60e51b815260206004820152601b60248201527f5265736f6c7574696f6e3a206c656e677468206d69736d61746368000000000060448201526064016106d5565b600280546000918261079d8361329e565b9091555060008181526007602052604090209091506107bd818b8b612954565b506001810188905560058101805460ff191688151517905585516107ea90600783019060208901906129d8565b5084516108009060088301906020880190612a2d565b50604051829033907f5cb605df30db4389dcc26eb7b6ac40cee45e3da41204619ed102f777bf814f8b90600090a35098975050505050505050565b6001600160a01b03811633146108ab5760405162461bcd60e51b815260206004820152602f60248201527f416363657373436f6e74726f6c3a2063616e206f6e6c792072656e6f756e636560448201526e103937b632b9903337b91039b2b63360891b60648201526084016106d5565b6108b5828261249e565b5050565b6000828152600760205260408082206005546003820154925163b652d57b60e01b81526001600160a01b03868116600483015260248201949094528493849392169063b652d57b90604401602060405180830381865afa158015610921573d6000803e3d6000fd5b505050506040513d601f19601f82011682018060405250810190610945919061326b565b6109a75760405162461bcd60e51b815260206004820152602d60248201527f5265736f6c7574696f6e3a206163636f756e7420636f756c64206e6f7420766f60448201526c3a32903932b9b7b63aba34b7b760991b60648201526084016106d5565b6001600160a01b038581166000818152600b84016020908152604080832054600a8701909252918290205460055460038701549351630fcc97f960e11b815260048101869052602481019490945260ff92831699509116965091929190911690631f992ff290604401602060405180830381865afa158015610a2d573d6000803e3d6000fd5b505050506040513d601f19601f82011682018060405250810190610a5191906132b9565b6001600160a01b031614158015610a655750825b15610aee5760048054600383015460405163277166bf60e11b81526001600160a01b03898116948201949094526024810191909152911690634ee2cd7e90604401602060405180830381865afa158015610ac3573d6000803e3d6000fd5b505050506040513d601f19601f82011682018060405250810190610ae79190613252565b9150610b8a565b6001600160a01b038581166000818152600c8401602052604090819020546005546003860154925163eaeded5f60e01b81526004810194909452602484019290925292169063eaeded5f90604401602060405180830381865afa158015610b59573d6000803e3d6000fd5b505050506040513d601f19601f82011682018060405250810190610b7d9190613252565b610b8791906132d6565b91505b509250925092565b6000878152600760205260409020600281015488919015610bc55760405162461bcd60e51b81526004016106d5906132ed565b600681015415610be75760405162461bcd60e51b81526004016106d590613324565b60008981526007602052604090208351855114610c465760405162461bcd60e51b815260206004820152601b60248201527f5265736f6c7574696f6e3a206c656e677468206d69736d61746368000000000060448201526064016106d5565b600354604080516306c1c03b60e01b815290516001600160a01b0390921691630ea018f79183916306c1c03b916004808201926020929091908290030181865afa158015610c98573d6000803e3d6000fd5b505050506040513d601f19601f82011682018060405250810190610cbc9190613252565b336040516001600160e01b031960e085901b16815260048101929092526001600160a01b03166024820152604401602060405180830381865afa158015610d07573d6000803e3d6000fd5b505050506040513d601f19601f82011682018060405250810190610d2b919061326b565b610d8a5760405162461bcd60e51b815260206004820152602a60248201527f5265736f6c7574696f6e3a206f6e6c79206d616e6167696e6720626f6172642060448201526963616e2075706461746560b01b60648201526084016106d5565b600060068881548110610d9f57610d9f61323c565b90600052602060002090600502019050861580610dc05750600481015460ff165b610e0c5760405162461bcd60e51b815260206004820152601e60248201527f5265736f6c7574696f6e3a2063616e6e6f74206265206e65676174697665000060448201526064016106d5565b610e17828b8b612954565b506001820188905560058201805460ff19168815151790558551610e4490600784019060208901906129d8565b508451610e5a9060088401906020880190612a2d565b506040518b9033907fe9fbf855f59ea63a795f1f64e447af0f3316384d1f74ac2685c9cf4231d15ef890600090a35050505050505050505050565b60008181526007602052604081206001810154600680548492908110610ebd57610ebd61323c565b600091825260208220600580546003870154604051633fadf73b60e01b815260048101919091529390910290910193506001600160a01b031690633fadf73b90602401602060405180830381865afa158015610f1d573d6000803e3d6000fd5b505050506040513d601f19601f82011682018060405250810190610f419190613252565b90506000818360010154610f55919061335b565b6004850154610f6590606461335b565b6005860154911115915060ff16610f7c5780610f7f565b80155b9695505050505050565b6000818152600760205260409020600281015482919015610fbc5760405162461bcd60e51b81526004016106d5906132ed565b600681015415610fde5760405162461bcd60e51b81526004016106d590613324565b8260025481106110305760405162461bcd60e51b815260206004820152601a60248201527f5265736f6c7574696f6e3a20646f6573206e6f7420657869737400000000000060448201526064016106d5565b600354604080516306c1c03b60e01b815290516001600160a01b0390921691630ea018f79183916306c1c03b916004808201926020929091908290030181865afa158015611082573d6000803e3d6000fd5b505050506040513d601f19601f820116820180604052508101906110a69190613252565b336040516001600160e01b031960e085901b16815260048101929092526001600160a01b03166024820152604401602060405180830381865afa1580156110f1573d6000803e3d6000fd5b505050506040513d601f19601f82011682018060405250810190611115919061326b565b6111755760405162461bcd60e51b815260206004820152602b60248201527f5265736f6c7574696f6e3a206f6e6c79206d616e6167696e6720626f6172642060448201526a63616e20617070726f766560a81b60648201526084016106d5565b6000848152600760205260409020426002820155611191612505565b6003820155604051859033907f6f6c6ecde2adc206ce4f038800c59db57260d8a236c7a599438a553d7e4b3aa690600090a35050505050565b60008181526007602081905260409091209081015461122b5760405162461bcd60e51b815260206004820152601e60248201527f5265736f6c7574696f6e3a206e6f7468696e6720746f2065786563757465000060448201526064016106d5565b600081600201541161127a5760405162461bcd60e51b815260206004820152601860248201527714995cdbdb1d5d1a5bdb8e881b9bdd08185c1c1c9bdd995960421b60448201526064016106d5565b6009810154156112cc5760405162461bcd60e51b815260206004820152601c60248201527f5265736f6c7574696f6e3a20616c72656164792065786563757465640000000060448201526064016106d5565b60006112d782612661565b915050804210156113225760405162461bcd60e51b815260206004820152601560248201527414995cdbdb1d5d1a5bdb8e881b9bdd08195b991959605a1b60448201526064016106d5565b61132b83610e95565b6113705760405162461bcd60e51b815260206004820152601660248201527514995cdbdb1d5d1a5bdb8e881b9bdd081c185cdcd95960521b60448201526064016106d5565b6000826007018054806020026020016040519081016040528092919081815260200182805480156113ca57602002820191906000526020600020905b81546001600160a01b031681526001909101906020018083116113ac575b50505050509050600083600801805480602002602001604051908101604052809291908181526020016000905b828210156114a357838290600052602060002001805461141690613201565b80601f016020809104026020016040519081016040528092919081815260200182805461144290613201565b801561148f5780601f106114645761010080835404028352916020019161148f565b820191906000526020600020905b81548152906001019060200180831161147257829003601f168201915b5050505050815260200190600101906113f7565b505042600988015550909150600090505b82518110156115af5760008382815181106114d1576114d161323c565b60200260200101516001600160a01b03168383815181106114f4576114f461323c565b6020026020010151604051611509919061337a565b6000604051808303816000865af19150503d8060008114611546576040519150601f19603f3d011682016040523d82523d6000602084013e61154b565b606091505b505090508061159c5760405162461bcd60e51b815260206004820152601c60248201527f5265736f6c7574696f6e3a20657865637574696f6e206661696c65640000000060448201526064016106d5565b50806115a78161329e565b9150506114b4565b50604051859033907f14a68c83cab032d52f3c5eb75dcda4cfdc0efbe72a39c36bda85edd44918df0990600090a35050505050565b60009182526001602090815260408084206001600160a01b0393909316845291905290205460ff1690565b6006818154811061161f57600080fd5b906000526020600020906005020160009150905080600001805461164290613201565b80601f016020809104026020016040519081016040528092919081815260200182805461166e90613201565b80156116bb5780601f10611690576101008083540402835291602001916116bb565b820191906000526020600020905b81548152906001019060200180831161169e57829003601f168201915b505050506001830154600284015460038501546004909501549394919390925060ff1685565b7f97667070c54ef182b0f5858b034beac1b6f3089aa2d3188bb1e8929f4fa9b92961170b81612335565b50600480546001600160a01b0319166001600160a01b0392909216919091179055565b7f97667070c54ef182b0f5858b034beac1b6f3089aa2d3188bb1e8929f4fa9b92961175881612335565b50600380546001600160a01b0319166001600160a01b0392909216919091179055565b60076020526000908152604090208054819061179690613201565b80601f01602080910402602001604051908101604052809291908181526020018280546117c290613201565b801561180f5780601f106117e45761010080835404028352916020019161180f565b820191906000526020600020905b8154815290600101906020018083116117f257829003601f168201915b505050600184015460028501546003860154600487015460058801546006890154600990990154979894979396509194509260ff9091169188565b600061185660016126bb565b9050801561186e576000805461ff0019166101001790555b600380546001600160a01b038087166001600160a01b0319928316179092556004805486841690831617905560058054928516929091169190911790556118bc60006118b73390565b612743565b6118f260405180604001604052806009815260200168185b595b991b595b9d60ba1b8152506042621275006207e9006000612342565b61192c6040518060400160405280600d81526020016c6361706974616c4368616e676560981b8152506042621275006207e9006000612342565b6119636040518060400160405280600a815260200169383932b1b63ab9b4b7b760b11b815250604b621275006207e9006000612342565b6119a06040518060400160405280601081526020016f333ab73230b6b2b73a30b627ba3432b960811b8152506033621275006207e9006000612342565b6119d86040518060400160405280600b81526020016a1cda59db9a599a58d85b9d60aa1b81525060336207e900620546006000612342565b611a106040518060400160405280600b81526020016a3234b9b9b7b63aba34b7b760a91b8152506042621275006207e9006000612342565b611a4460405180604001604052806007815260200166726f7574696e6560c81b81525060336203f4806202a3006001612342565b611a766040518060400160405280600781526020016667656e6573697360c81b81525060646000620546006000612342565b60016002558015611ac1576000805461ff0019169055604051600181527f7f26b83ff96e1f2b6a682f133852f6798a09c465da95921460cefb38474024989060200160405180910390a15b50505050565b7f97667070c54ef182b0f5858b034beac1b6f3089aa2d3188bb1e8929f4fa9b929611af181612335565b50600580546001600160a01b0319166001600160a01b0392909216919091179055565b60008281526007602052604090206005546001600160a01b031663b652d57b3360038401546040516001600160e01b031960e085901b1681526001600160a01b0390921660048301526024820152604401602060405180830381865afa158015611b82573d6000803e3d6000fd5b505050506040513d601f19601f82011682018060405250810190611ba6919061326b565b611bf25760405162461bcd60e51b815260206004820152601f60248201527f5265736f6c7574696f6e3a206163636f756e742063616e6e6f7420766f74650060448201526064016106d5565b336000908152600b8201602052604090205460ff161515821515141580611c2b5750336000908152600a8201602052604090205460ff16155b611c825760405162461bcd60e51b815260206004820152602260248201527f5265736f6c7574696f6e3a2063616e2774207265706561742073616d6520766f604482015261746560f01b60648201526084016106d5565b6000816002015411611cd15760405162461bcd60e51b815260206004820152601860248201527714995cdbdb1d5d1a5bdb8e881b9bdd08185c1c1c9bdd995960421b60448201526064016106d5565b600080611cdd83612661565b91509150814210158015611cf057508042105b611d3c5760405162461bcd60e51b815260206004820152601760248201527f5265736f6c7574696f6e3a206e6f7420766f7461626c6500000000000000000060448201526064016106d5565b6005546000906001600160a01b031663eaeded5f3360038701546040516001600160e01b031960e085901b1681526001600160a01b0390921660048301526024820152604401602060405180830381865afa158015611d9f573d6000803e3d6000fd5b505050506040513d601f19601f82011682018060405250810190611dc39190613252565b6005549091506000906001600160a01b0316631f992ff23360038801546040516001600160e01b031960e085901b1681526001600160a01b0390921660048301526024820152604401602060405180830381865afa158015611e29573d6000803e3d6000fd5b505050506040513d601f19601f82011682018060405250810190611e4d91906132b9565b90506001600160a01b0381163314611fb9576004546001600160a01b0316634ee2cd7e3360038801546040516001600160e01b031960e085901b1681526001600160a01b0390921660048301526024820152604401602060405180830381865afa158015611ebf573d6000803e3d6000fd5b505050506040513d601f19601f82011682018060405250810190611ee39190613252565b6001600160a01b0382166000908152600a8701602052604090205490925060ff168015611f2a57506001600160a01b0381166000908152600b8601602052604090205460ff165b15611f495781856004016000828254611f4391906132d6565b90915550505b6001600160a01b0381166000908152600c8601602052604081208054849290611f73908490613396565b909155505060405182815287906001600160a01b038316907f2a753d47dc7411744b037903d0f3d1273bd5046e19f509d13d0a896bb6dca8969060200160405180910390a35b336000908152600c86016020526040902054611fd590836132d6565b9150858015611ff65750336000908152600b8601602052604090205460ff16155b1561201a578185600401600082825461200f9190613396565b9091555061204e9050565b336000908152600b8601602052604090205460ff161561204e578185600401600082825461204891906132d6565b90915550505b604080518381528715156020820152889133917fe38278e9a4991080fd5c68b1594173a60b3db30bd509a1fe3d0b68f9fcb2e0ab910160405180910390a35050336000908152600a8401602090815260408083208054600160ff1991821617909155600b9096019091529020805490931693151593909317909155505050565b600082815260016020819052604090912001546120ea81612335565b61056e838361249e565b60008181526007602052604090206002810154829190156121275760405162461bcd60e51b81526004016106d5906132ed565b6006810154156121495760405162461bcd60e51b81526004016106d590613324565b82600254811061219b5760405162461bcd60e51b815260206004820152601a60248201527f5265736f6c7574696f6e3a20646f6573206e6f7420657869737400000000000060448201526064016106d5565b600354604080516306c1c03b60e01b815290516001600160a01b0390921691630ea018f79183916306c1c03b916004808201926020929091908290030181865afa1580156121ed573d6000803e3d6000fd5b505050506040513d601f19601f820116820180604052508101906122119190613252565b336040516001600160e01b031960e085901b16815260048101929092526001600160a01b03166024820152604401602060405180830381865afa15801561225c573d6000803e3d6000fd5b505050506040513d601f19601f82011682018060405250810190612280919061326b565b6122df5760405162461bcd60e51b815260206004820152602a60248201527f5265736f6c7574696f6e3a206f6e6c79206d616e6167696e6720626f6172642060448201526918d85b881c995a9958dd60b21b60648201526084016106d5565b60008481526007602052604080822042600682015590519091869133917f206580a2d87d2bd5906ada5f3ca523aefb5f6b61f702ea347d5399778b647dae91a35050505050565b6001600160a01b03163b151590565b61233f813361274d565b50565b6040805160a08101825286815260208082018790529181018590526060810184905282151560808201526006805460018101825560009190915281518051929360059092027ff652222313e28459528d920b65115c16c04f3efc82aaedc97be59f3f377c0d3f01926123b79284920190612a86565b50602082015160018281019190915560408301516002830155606083015160038301556080909201516004909101805460ff191691151591909117905560065461240191906132d6565b60405133907fc9b91babd5124906e4cca98d9386ddac639dfee98b2bd33a27dbb5c048bd855a90600090a35050505050565b61243d82826115e4565b6108b55760008281526001602081815260408084206001600160a01b0386168086529252808420805460ff19169093179092559051339285917f2f8788117e7eff1d82e926ec794901d17c78024a50270940304540a733656f0d9190a45050565b6124a882826115e4565b156108b55760008281526001602090815260408083206001600160a01b0385168085529252808320805460ff1916905551339285917ff6391f5c32d9c69d2a47ea670b442974b53935d1edc7fd64eb21e047a839171b9190a45050565b60035460408051634b88b8ad60e11b815290516000926001600160a01b031691639711715a916004808301926020929190829003018187875af1158015612550573d6000803e3d6000fd5b505050506040513d601f19601f820116820180604052508101906125749190613252565b506004805460408051634b88b8ad60e11b815290516001600160a01b0390921692639711715a92828201926020929082900301816000875af11580156125be573d6000803e3d6000fd5b505050506040513d601f19601f820116820180604052508101906125e29190613252565b50600560009054906101000a90046001600160a01b03166001600160a01b0316639711715a6040518163ffffffff1660e01b81526004016020604051808303816000875af1158015612638573d6000803e3d6000fd5b505050506040513d601f19601f8201168201806040525081019061265c9190613252565b905090565b6000806000600684600101548154811061267d5761267d61323c565b90600052602060002090600502019050806002015484600201546126a19190613396565b92508060030154836126b39190613396565b915050915091565b60008054610100900460ff1615612702578160ff1660011480156126de5750303b155b6126fa5760405162461bcd60e51b81526004016106d5906133ae565b506000919050565b60005460ff8084169116106127295760405162461bcd60e51b81526004016106d5906133ae565b506000805460ff191660ff92909216919091179055600190565b6108b58282612433565b61275782826115e4565b6108b55761276f816001600160a01b031660146127b1565b61277a8360206127b1565b60405160200161278b9291906133fc565b60408051601f198184030181529082905262461bcd60e51b82526106d591600401613471565b606060006127c083600261335b565b6127cb906002613396565b67ffffffffffffffff8111156127e3576127e3612ca2565b6040519080825280601f01601f19166020018201604052801561280d576020820181803683370190505b509050600360fc1b816000815181106128285761282861323c565b60200101906001600160f81b031916908160001a905350600f60fb1b816001815181106128575761285761323c565b60200101906001600160f81b031916908160001a905350600061287b84600261335b565b612886906001613396565b90505b60018111156128fe576f181899199a1a9b1b9c1cb0b131b232b360811b85600f16601081106128ba576128ba61323c565b1a60f81b8282815181106128d0576128d061323c565b60200101906001600160f81b031916908160001a90535060049490941c936128f781613484565b9050612889565b50831561294d5760405162461bcd60e51b815260206004820181905260248201527f537472696e67733a20686578206c656e67746820696e73756666696369656e7460448201526064016106d5565b9392505050565b82805461296090613201565b90600052602060002090601f01602090048101928261298257600085556129c8565b82601f1061299b5782800160ff198235161785556129c8565b828001600101855582156129c8579182015b828111156129c85782358255916020019190600101906129ad565b506129d4929150612afa565b5090565b8280548282559060005260206000209081019282156129c8579160200282015b828111156129c857825182546001600160a01b0319166001600160a01b039091161782556020909201916001909101906129f8565b828054828255906000526020600020908101928215612a7a579160200282015b82811115612a7a5782518051612a6a918491602090910190612a86565b5091602001919060010190612a4d565b506129d4929150612b0f565b828054612a9290613201565b90600052602060002090601f016020900481019282612ab457600085556129c8565b82601f10612acd57805160ff19168380011785556129c8565b828001600101855582156129c8579182015b828111156129c8578251825591602001919060010190612adf565b5b808211156129d45760008155600101612afb565b808211156129d4576000612b238282612b2c565b50600101612b0f565b508054612b3890613201565b6000825580601f10612b48575050565b601f01602090049060005260206000209081019061233f9190612afa565b600060208284031215612b7857600080fd5b81356001600160e01b03198116811461294d57600080fd5b600060208284031215612ba257600080fd5b5035919050565b60005b83811015612bc4578181015183820152602001612bac565b83811115611ac15750506000910152565b60008151808452612bed816020860160208601612ba9565b601f01601f19169290920160200192915050565b604080825283519082018190526000906020906060840190828701845b82811015612c435781516001600160a01b031684529284019290840190600101612c1e565b50505083810382850152845180825282820190600581901b8301840187850160005b83811015612c9357601f19868403018552612c81838351612bd5565b94870194925090860190600101612c65565b50909998505050505050505050565b634e487b7160e01b600052604160045260246000fd5b604051601f8201601f1916810167ffffffffffffffff81118282101715612ce157612ce1612ca2565b604052919050565b600067ffffffffffffffff831115612d0357612d03612ca2565b612d16601f8401601f1916602001612cb8565b9050828152838383011115612d2a57600080fd5b828260208301376000602084830101529392505050565b801515811461233f57600080fd5b600080600080600060a08688031215612d6757600080fd5b853567ffffffffffffffff811115612d7e57600080fd5b8601601f81018813612d8f57600080fd5b612d9e88823560208401612ce9565b9550506020860135935060408601359250606086013591506080860135612dc481612d41565b809150509295509295909350565b6001600160a01b038116811461233f57600080fd5b60008060408385031215612dfa57600080fd5b823591506020830135612e0c81612dd2565b809150509250929050565b60008083601f840112612e2957600080fd5b50813567ffffffffffffffff811115612e4157600080fd5b602083019150836020828501011115612e5957600080fd5b9250929050565b600067ffffffffffffffff821115612e7a57612e7a612ca2565b5060051b60200190565b600082601f830112612e9557600080fd5b81356020612eaa612ea583612e60565b612cb8565b82815260059290921b84018101918181019086841115612ec957600080fd5b8286015b84811015612eed578035612ee081612dd2565b8352918301918301612ecd565b509695505050505050565b600082601f830112612f0957600080fd5b81356020612f19612ea583612e60565b82815260059290921b84018101918181019086841115612f3857600080fd5b8286015b84811015612eed57803567ffffffffffffffff811115612f5c5760008081fd5b8701603f81018913612f6e5760008081fd5b612f7f898683013560408401612ce9565b845250918301918301612f3c565b60008060008060008060a08789031215612fa657600080fd5b863567ffffffffffffffff80821115612fbe57600080fd5b612fca8a838b01612e17565b90985096506020890135955060408901359150612fe682612d41565b90935060608801359080821115612ffc57600080fd5b6130088a838b01612e84565b9350608089013591508082111561301e57600080fd5b5061302b89828a01612ef8565b9150509295509295509295565b600080600080600080600060c0888a03121561305357600080fd5b87359650602088013567ffffffffffffffff8082111561307257600080fd5b61307e8b838c01612e17565b909850965060408a0135955060608a0135915061309a82612d41565b909350608089013590808211156130b057600080fd5b6130bc8b838c01612e84565b935060a08a01359150808211156130d257600080fd5b506130df8a828b01612ef8565b91505092959891949750929550565b60a08152600061310160a0830188612bd5565b905085602083015284604083015283606083015282151560808301529695505050505050565b60006020828403121561313957600080fd5b813561294d81612dd2565b60006101008083526131588184018c612bd5565b602084019a909a525050604081019690965260608601949094526080850192909252151560a084015260c083015260e090910152919050565b6000806000606084860312156131a657600080fd5b83356131b181612dd2565b925060208401356131c181612dd2565b915060408401356131d181612dd2565b809150509250925092565b600080604083850312156131ef57600080fd5b823591506020830135612e0c81612d41565b600181811c9082168061321557607f821691505b6020821081141561323657634e487b7160e01b600052602260045260246000fd5b50919050565b634e487b7160e01b600052603260045260246000fd5b60006020828403121561326457600080fd5b5051919050565b60006020828403121561327d57600080fd5b815161294d81612d41565b634e487b7160e01b600052601160045260246000fd5b60006000198214156132b2576132b2613288565b5060010190565b6000602082840312156132cb57600080fd5b815161294d81612dd2565b6000828210156132e8576132e8613288565b500390565b6020808252601c908201527f5265736f6c7574696f6e3a20616c726561647920617070726f76656400000000604082015260600190565b6020808252601c908201527f5265736f6c7574696f6e3a20616c72656164792072656a656374656400000000604082015260600190565b600081600019048311821515161561337557613375613288565b500290565b6000825161338c818460208701612ba9565b9190910192915050565b600082198211156133a9576133a9613288565b500190565b6020808252602e908201527f496e697469616c697a61626c653a20636f6e747261637420697320616c72656160408201526d191e481a5b9a5d1a585b1a5e995960921b606082015260800190565b7f416363657373436f6e74726f6c3a206163636f756e7420000000000000000000815260008351613434816017850160208801612ba9565b7001034b99036b4b9b9b4b733903937b6329607d1b6017918401918201528351613465816028840160208801612ba9565b01602801949350505050565b60208152600061294d6020830184612bd5565b60008161349357613493613288565b50600019019056fea264697066735822122027387513a26985d4f0870eef41aada52998187fa550dfd624213296247cf2b7364736f6c634300080b0033496e697469616c697a61626c653a20636f6e747261637420697320616c726561",
  "linkReferences": {},
  "deployedLinkReferences": {}
}