{
  "_format": "hh-sol-artifact-1",
  "contractName": "ShareholderRegistry",
  "sourceName": "contracts/ShareholderRegistry/ShareholderRegistry.sol",
  "abi": [
    {
      "inputs": [],
      "stateMutability": "nonpayable",
      "type": "constructor"
    },
    {
      "anonymous": false,
      "inputs": [
        {
          "indexed": true,
          "internalType": "address",
          "name": "owner",
          "type": "address"
        },
        {
          "indexed": true,
          "internalType": "address",
          "name": "spender",
          "type": "address"
        },
        {
          "indexed": false,
          "internalType": "uint256",
          "name": "value",
          "type": "uint256"
        }
      ],
      "name": "Approval",
      "type": "event"
    },
    {
      "anonymous": false,
      "inputs": [
        {
          "indexed": false,
          "internalType": "uint8",
          "name": "version",
          "type": "uint8"
        }
      ],
      "name": "Initialized",
      "type": "event"
    },
    {
      "anonymous": false,
      "inputs": [
        {
          "indexed": true,
          "internalType": "bytes32",
          "name": "role",
          "type": "bytes32"
        },
        {
          "indexed": true,
          "internalType": "bytes32",
          "name": "previousAdminRole",
          "type": "bytes32"
        },
        {
          "indexed": true,
          "internalType": "bytes32",
          "name": "newAdminRole",
          "type": "bytes32"
        }
      ],
      "name": "RoleAdminChanged",
      "type": "event"
    },
    {
      "anonymous": false,
      "inputs": [
        {
          "indexed": true,
          "internalType": "bytes32",
          "name": "role",
          "type": "bytes32"
        },
        {
          "indexed": true,
          "internalType": "address",
          "name": "account",
          "type": "address"
        },
        {
          "indexed": true,
          "internalType": "address",
          "name": "sender",
          "type": "address"
        }
      ],
      "name": "RoleGranted",
      "type": "event"
    },
    {
      "anonymous": false,
      "inputs": [
        {
          "indexed": true,
          "internalType": "bytes32",
          "name": "role",
          "type": "bytes32"
        },
        {
          "indexed": true,
          "internalType": "address",
          "name": "account",
          "type": "address"
        },
        {
          "indexed": true,
          "internalType": "address",
          "name": "sender",
          "type": "address"
        }
      ],
      "name": "RoleRevoked",
      "type": "event"
    },
    {
      "anonymous": false,
      "inputs": [
        {
          "indexed": false,
          "internalType": "uint256",
          "name": "id",
          "type": "uint256"
        }
      ],
      "name": "Snapshot",
      "type": "event"
    },
    {
      "anonymous": false,
      "inputs": [
        {
          "indexed": true,
          "internalType": "address",
          "name": "account",
          "type": "address"
        },
        {
          "indexed": false,
          "internalType": "bytes32",
          "name": "previous",
          "type": "bytes32"
        },
        {
          "indexed": false,
          "internalType": "bytes32",
          "name": "current",
          "type": "bytes32"
        }
      ],
      "name": "StatusChanged",
      "type": "event"
    },
    {
      "anonymous": false,
      "inputs": [
        {
          "indexed": true,
          "internalType": "address",
          "name": "from",
          "type": "address"
        },
        {
          "indexed": true,
          "internalType": "address",
          "name": "to",
          "type": "address"
        },
        {
          "indexed": false,
          "internalType": "uint256",
          "name": "value",
          "type": "uint256"
        }
      ],
      "name": "Transfer",
      "type": "event"
    },
    {
      "inputs": [],
      "name": "CONTRIBUTOR_STATUS",
      "outputs": [
        {
          "internalType": "bytes32",
          "name": "",
          "type": "bytes32"
        }
      ],
      "stateMutability": "view",
      "type": "function"
    },
    {
      "inputs": [],
      "name": "DEFAULT_ADMIN_ROLE",
      "outputs": [
        {
          "internalType": "bytes32",
          "name": "",
          "type": "bytes32"
        }
      ],
      "stateMutability": "view",
      "type": "function"
    },
    {
      "inputs": [],
      "name": "INVESTOR_STATUS",
      "outputs": [
        {
          "internalType": "bytes32",
          "name": "",
          "type": "bytes32"
        }
      ],
      "stateMutability": "view",
      "type": "function"
    },
    {
      "inputs": [],
      "name": "MANAGING_BOARD_STATUS",
      "outputs": [
        {
          "internalType": "bytes32",
          "name": "",
          "type": "bytes32"
        }
      ],
      "stateMutability": "view",
      "type": "function"
    },
    {
      "inputs": [],
      "name": "SHAREHOLDER_STATUS",
      "outputs": [
        {
          "internalType": "bytes32",
          "name": "",
          "type": "bytes32"
        }
      ],
      "stateMutability": "view",
      "type": "function"
    },
    {
      "inputs": [
        {
          "internalType": "address",
          "name": "owner",
          "type": "address"
        },
        {
          "internalType": "address",
          "name": "spender",
          "type": "address"
        }
      ],
      "name": "allowance",
      "outputs": [
        {
          "internalType": "uint256",
          "name": "",
          "type": "uint256"
        }
      ],
      "stateMutability": "view",
      "type": "function"
    },
    {
      "inputs": [
        {
          "internalType": "address",
          "name": "spender",
          "type": "address"
        },
        {
          "internalType": "uint256",
          "name": "amount",
          "type": "uint256"
        }
      ],
      "name": "approve",
      "outputs": [
        {
          "internalType": "bool",
          "name": "",
          "type": "bool"
        }
      ],
      "stateMutability": "nonpayable",
      "type": "function"
    },
    {
      "inputs": [
        {
          "internalType": "address",
          "name": "account",
          "type": "address"
        }
      ],
      "name": "balanceOf",
      "outputs": [
        {
          "internalType": "uint256",
          "name": "",
          "type": "uint256"
        }
      ],
      "stateMutability": "view",
      "type": "function"
    },
    {
      "inputs": [
        {
          "internalType": "address",
          "name": "account",
          "type": "address"
        },
        {
          "internalType": "uint256",
          "name": "snapshotId",
          "type": "uint256"
        }
      ],
      "name": "balanceOfAt",
      "outputs": [
        {
          "internalType": "uint256",
          "name": "balance",
          "type": "uint256"
        }
      ],
      "stateMutability": "view",
      "type": "function"
    },
    {
      "inputs": [
        {
          "internalType": "address[]",
          "name": "recipients",
          "type": "address[]"
        }
      ],
      "name": "batchTransferFromDAO",
      "outputs": [],
      "stateMutability": "nonpayable",
      "type": "function"
    },
    {
      "inputs": [
        {
          "internalType": "address",
          "name": "account",
          "type": "address"
        },
        {
          "internalType": "uint256",
          "name": "amount",
          "type": "uint256"
        }
      ],
      "name": "burn",
      "outputs": [],
      "stateMutability": "nonpayable",
      "type": "function"
    },
    {
      "inputs": [],
      "name": "decimals",
      "outputs": [
        {
          "internalType": "uint8",
          "name": "",
          "type": "uint8"
        }
      ],
      "stateMutability": "view",
      "type": "function"
    },
    {
      "inputs": [
        {
          "internalType": "address",
          "name": "spender",
          "type": "address"
        },
        {
          "internalType": "uint256",
          "name": "subtractedValue",
          "type": "uint256"
        }
      ],
      "name": "decreaseAllowance",
      "outputs": [
        {
          "internalType": "bool",
          "name": "",
          "type": "bool"
        }
      ],
      "stateMutability": "nonpayable",
      "type": "function"
    },
    {
      "inputs": [
        {
          "internalType": "address",
          "name": "account",
          "type": "address"
        },
        {
          "internalType": "uint256",
          "name": "snapshotId",
          "type": "uint256"
        }
      ],
      "name": "getBalanceAndStatusAt",
      "outputs": [
        {
          "internalType": "uint256",
          "name": "",
          "type": "uint256"
        },
        {
          "internalType": "bytes32",
          "name": "",
          "type": "bytes32"
        }
      ],
      "stateMutability": "view",
      "type": "function"
    },
    {
      "inputs": [],
      "name": "getCurrentSnapshotId",
      "outputs": [
        {
          "internalType": "uint256",
          "name": "",
          "type": "uint256"
        }
      ],
      "stateMutability": "view",
      "type": "function"
    },
    {
      "inputs": [
        {
          "internalType": "bytes32",
          "name": "role",
          "type": "bytes32"
        }
      ],
      "name": "getRoleAdmin",
      "outputs": [
        {
          "internalType": "bytes32",
          "name": "",
          "type": "bytes32"
        }
      ],
      "stateMutability": "view",
      "type": "function"
    },
    {
      "inputs": [
        {
          "internalType": "address",
          "name": "account",
          "type": "address"
        }
      ],
      "name": "getStatus",
      "outputs": [
        {
          "internalType": "bytes32",
          "name": "",
          "type": "bytes32"
        }
      ],
      "stateMutability": "view",
      "type": "function"
    },
    {
      "inputs": [
        {
          "internalType": "address",
          "name": "account",
          "type": "address"
        },
        {
          "internalType": "uint256",
          "name": "snapshotId",
          "type": "uint256"
        }
      ],
      "name": "getStatusAt",
      "outputs": [
        {
          "internalType": "bytes32",
          "name": "status",
          "type": "bytes32"
        }
      ],
      "stateMutability": "view",
      "type": "function"
    },
    {
      "inputs": [
        {
          "internalType": "bytes32",
          "name": "role",
          "type": "bytes32"
        },
        {
          "internalType": "address",
          "name": "account",
          "type": "address"
        }
      ],
      "name": "grantRole",
      "outputs": [],
      "stateMutability": "nonpayable",
      "type": "function"
    },
    {
      "inputs": [
        {
          "internalType": "bytes32",
          "name": "role",
          "type": "bytes32"
        },
        {
          "internalType": "address",
          "name": "account",
          "type": "address"
        }
      ],
      "name": "hasRole",
      "outputs": [
        {
          "internalType": "bool",
          "name": "",
          "type": "bool"
        }
      ],
      "stateMutability": "view",
      "type": "function"
    },
    {
      "inputs": [
        {
          "internalType": "address",
          "name": "spender",
          "type": "address"
        },
        {
          "internalType": "uint256",
          "name": "addedValue",
          "type": "uint256"
        }
      ],
      "name": "increaseAllowance",
      "outputs": [
        {
          "internalType": "bool",
          "name": "",
          "type": "bool"
        }
      ],
      "stateMutability": "nonpayable",
      "type": "function"
    },
    {
      "inputs": [
        {
          "internalType": "string",
          "name": "name",
          "type": "string"
        },
        {
          "internalType": "string",
          "name": "symbol",
          "type": "string"
        }
      ],
      "name": "initialize",
      "outputs": [],
      "stateMutability": "nonpayable",
      "type": "function"
    },
    {
      "inputs": [
        {
          "internalType": "bytes32",
          "name": "status",
          "type": "bytes32"
        },
        {
          "internalType": "address",
          "name": "account",
          "type": "address"
        }
      ],
      "name": "isAtLeast",
      "outputs": [
        {
          "internalType": "bool",
          "name": "",
          "type": "bool"
        }
      ],
      "stateMutability": "view",
      "type": "function"
    },
    {
      "inputs": [
        {
          "internalType": "bytes32",
          "name": "status",
          "type": "bytes32"
        },
        {
          "internalType": "address",
          "name": "account",
          "type": "address"
        },
        {
          "internalType": "uint256",
          "name": "snapshotId",
          "type": "uint256"
        }
      ],
      "name": "isAtLeastAt",
      "outputs": [
        {
          "internalType": "bool",
          "name": "",
          "type": "bool"
        }
      ],
      "stateMutability": "view",
      "type": "function"
    },
    {
      "inputs": [
        {
          "internalType": "address",
          "name": "account",
          "type": "address"
        },
        {
          "internalType": "uint256",
          "name": "amount",
          "type": "uint256"
        }
      ],
      "name": "mint",
      "outputs": [],
      "stateMutability": "nonpayable",
      "type": "function"
    },
    {
      "inputs": [],
      "name": "name",
      "outputs": [
        {
          "internalType": "string",
          "name": "",
          "type": "string"
        }
      ],
      "stateMutability": "view",
      "type": "function"
    },
    {
      "inputs": [
        {
          "internalType": "bytes32",
          "name": "role",
          "type": "bytes32"
        },
        {
          "internalType": "address",
          "name": "account",
          "type": "address"
        }
      ],
      "name": "renounceRole",
      "outputs": [],
      "stateMutability": "nonpayable",
      "type": "function"
    },
    {
      "inputs": [
        {
          "internalType": "bytes32",
          "name": "role",
          "type": "bytes32"
        },
        {
          "internalType": "address",
          "name": "account",
          "type": "address"
        }
      ],
      "name": "revokeRole",
      "outputs": [],
      "stateMutability": "nonpayable",
      "type": "function"
    },
    {
      "inputs": [
        {
          "internalType": "bytes32",
          "name": "status",
          "type": "bytes32"
        },
        {
          "internalType": "address",
          "name": "account",
          "type": "address"
        }
      ],
      "name": "setStatus",
      "outputs": [],
      "stateMutability": "nonpayable",
      "type": "function"
    },
    {
      "inputs": [
        {
          "internalType": "contract IVoting",
          "name": "voting",
          "type": "address"
        }
      ],
      "name": "setVoting",
      "outputs": [],
      "stateMutability": "nonpayable",
      "type": "function"
    },
    {
      "inputs": [],
      "name": "snapshot",
      "outputs": [
        {
          "internalType": "uint256",
          "name": "",
          "type": "uint256"
        }
      ],
      "stateMutability": "nonpayable",
      "type": "function"
    },
    {
      "inputs": [
        {
          "internalType": "bytes4",
          "name": "interfaceId",
          "type": "bytes4"
        }
      ],
      "name": "supportsInterface",
      "outputs": [
        {
          "internalType": "bool",
          "name": "",
          "type": "bool"
        }
      ],
      "stateMutability": "view",
      "type": "function"
    },
    {
      "inputs": [],
      "name": "symbol",
      "outputs": [
        {
          "internalType": "string",
          "name": "",
          "type": "string"
        }
      ],
      "stateMutability": "view",
      "type": "function"
    },
    {
      "inputs": [],
      "name": "totalSupply",
      "outputs": [
        {
          "internalType": "uint256",
          "name": "",
          "type": "uint256"
        }
      ],
      "stateMutability": "view",
      "type": "function"
    },
    {
      "inputs": [
        {
          "internalType": "uint256",
          "name": "snapshotId",
          "type": "uint256"
        }
      ],
      "name": "totalSupplyAt",
      "outputs": [
        {
          "internalType": "uint256",
          "name": "",
          "type": "uint256"
        }
      ],
      "stateMutability": "view",
      "type": "function"
    },
    {
      "inputs": [
        {
          "internalType": "address",
          "name": "to",
          "type": "address"
        },
        {
          "internalType": "uint256",
          "name": "amount",
          "type": "uint256"
        }
      ],
      "name": "transfer",
      "outputs": [
        {
          "internalType": "bool",
          "name": "",
          "type": "bool"
        }
      ],
      "stateMutability": "nonpayable",
      "type": "function"
    },
    {
      "inputs": [
        {
          "internalType": "address",
          "name": "from",
          "type": "address"
        },
        {
          "internalType": "address",
          "name": "to",
          "type": "address"
        },
        {
          "internalType": "uint256",
          "name": "amount",
          "type": "uint256"
        }
      ],
      "name": "transferFrom",
      "outputs": [
        {
          "internalType": "bool",
          "name": "",
          "type": "bool"
        }
      ],
      "stateMutability": "nonpayable",
      "type": "function"
    }
  ],
  "bytecode": "0x60806040523480156200001157600080fd5b50600062000020600162000087565b9050801562000039576000805461ff0019166101001790555b801562000080576000805461ff0019169055604051600181527f7f26b83ff96e1f2b6a682f133852f6798a09c465da95921460cefb38474024989060200160405180910390a15b50620001a8565b60008054610100900460ff161562000120578160ff166001148015620000c05750620000be306200019960201b62000b111760201c565b155b620001185760405162461bcd60e51b815260206004820152602e60248201526000805160206200250983398151915260448201526d191e481a5b9a5d1a585b1a5e995960921b60648201526084015b60405180910390fd5b506000919050565b60005460ff8084169116106200017f5760405162461bcd60e51b815260206004820152602e60248201526000805160206200250983398151915260448201526d191e481a5b9a5d1a585b1a5e995960921b60648201526084016200010f565b506000805460ff191660ff92909216919091179055600190565b6001600160a01b03163b151590565b61235180620001b86000396000f3fe608060405234801561001057600080fd5b50600436106102275760003560e01c80634cd88b76116101305780639dc29fac116100b8578063d547741f1161007c578063d547741f146104bf578063dd62ed3e146104d2578063ed76fff3146104e5578063efbc89bc146104ee578063fe4c7da8146104f757600080fd5b80639dc29fac1461046b578063a217fddf1461047e578063a457c2d714610486578063a9059cbb14610499578063c4d07951146104ac57600080fd5b80638bdbbb75116100ff5780638bdbbb751461042257806391d148541461043557806395d89b41146104485780639711715a14610450578063981b24d01461045857600080fd5b80634cd88b76146103cb5780634ee2cd7e146103de5780635439ad86146103f157806370a08231146103f957600080fd5b806330ccebb5116101b357806336568abe1161018257806336568abe14610357578063395093511461036a57806340c10f191461037d5780634b4b35f6146103905780634baa52cc146103a357600080fd5b806330ccebb5146102f9578063313ce567146103225780633397cc231461033157806335650b5b1461034457600080fd5b80630ea018f7116101fa5780630ea018f71461029357806318160ddd146102a657806323b872dd146102ae578063248a9ca3146102c15780632f2ff15d146102e457600080fd5b806301ffc9a71461022c57806306c1c03b1461025457806306fdde031461026b578063095ea7b314610280575b600080fd5b61023f61023a366004611d6c565b610500565b60405190151581526020015b60405180910390f35b61025d60685481565b60405190815260200161024b565b610273610537565b60405161024b9190611dc2565b61023f61028e366004611e0a565b6105c9565b61023f6102a1366004611e36565b6105e1565b60355461025d565b61023f6102bc366004611e66565b610617565b61025d6102cf366004611ea7565b600090815260a1602052604090206001015490565b6102f76102f2366004611e36565b610647565b005b61025d610307366004611ec0565b6001600160a01b03166000908152606a602052604090205490565b6040516012815260200161024b565b61025d61033f366004611e0a565b610671565b6102f7610352366004611f24565b610685565b6102f7610365366004611e36565b6106aa565b61023f610378366004611e0a565b610729565b6102f761038b366004611e0a565b61074b565b61023f61039e366004611fd6565b61076d565b6103b66103b1366004611e0a565b610795565b6040805192835260208301919091520161024b565b6102f76103d936600461206d565b61084c565b61025d6103ec366004611e0a565b6108d7565b606b5461025d565b61025d610407366004611ec0565b6001600160a01b031660009081526033602052604090205490565b6102f7610430366004611e36565b6108eb565b61023f610443366004611e36565b61090d565b610273610938565b61025d610947565b61025d610466366004611ea7565b610970565b6102f7610479366004611e0a565b6109b7565b61025d600081565b61023f610494366004611e0a565b6109d9565b61023f6104a7366004611e0a565b610a54565b6102f76104ba366004611ec0565b610a78565b6102f76104cd366004611e36565b610ac1565b61025d6104e03660046120d1565b610ae6565b61025d60655481565b61025d60675481565b61025d60665481565b60006001600160e01b03198216637965db0b60e01b148061053157506301ffc9a760e01b6001600160e01b03198316145b92915050565b606060368054610546906120ff565b80601f0160208091040260200160405190810160405280929190818152602001828054610572906120ff565b80156105bf5780601f10610594576101008083540402835291602001916105bf565b820191906000526020600020905b8154815290600101906020018083116105a257829003601f168201915b5050505050905090565b6000336105d7818585610b20565b5060019392505050565b6001600160a01b038116600090815260336020908152604080832054606a909252822054610610919085610c44565b9392505050565b60006000805160206122fc83398151915261063181610c8a565b61063c858585610c97565b506001949350505050565b600082815260a1602052604090206001015461066281610c8a565b61066c8383610e7c565b505050565b600061067d8383610795565b949350505050565b6000805160206122fc83398151915261069d81610c8a565b6106a682610f02565b5050565b6001600160a01b038116331461071f5760405162461bcd60e51b815260206004820152602f60248201527f416363657373436f6e74726f6c3a2063616e206f6e6c792072656e6f756e636560448201526e103937b632b9903337b91039b2b63360891b60648201526084015b60405180910390fd5b6106a68282610f43565b6000336105d781858561073c8383610ae6565b6107469190612150565b610b20565b6000805160206122fc83398151915261076381610c8a565b61066c8383610faa565b600080600061077c8585610795565b9150915061078b828288610c44565b9695505050505050565b6001600160a01b0382166000908152606e60205260408120819081806107bb868461109d565b91509150816107ee576001600160a01b038716600090815260336020908152604080832054606a9092529091205461083d565b82600101818154811061080357610803612168565b90600052602060002090600202016001015483600101828154811061082a5761082a612168565b9060005260206000209060020201600001545b945094505050505b9250929050565b60006108586001611169565b90508015610870576000805461ff0019166101001790555b61087a83836111f1565b61088261128f565b61088d6000336112b8565b801561066c576000805461ff0019169055604051600181527f7f26b83ff96e1f2b6a682f133852f6798a09c465da95921460cefb38474024989060200160405180910390a1505050565b60006108e38383610795565b509392505050565b6000805160206122fc83398151915261090381610c8a565b61066c83836112c2565b600091825260a1602090815260408084206001600160a01b0393909316845291905290205460ff1690565b606060378054610546906120ff565b60006000805160206122fc83398151915261096181610c8a565b6109696113c8565b91505b5090565b6000808061097f84606c61109d565b91509150816109905760355461067d565b606d8054829081106109a4576109a4612168565b9060005260206000200154949350505050565b6000805160206122fc8339815191526109cf81610c8a565b61066c838361140b565b600033816109e78286610ae6565b905083811015610a475760405162461bcd60e51b815260206004820152602560248201527f45524332303a2064656372656173656420616c6c6f77616e63652062656c6f77604482015264207a65726f60d81b6064820152608401610716565b61063c8286868403610b20565b60006000805160206122fc833981519152610a6e81610c8a565b61067d848461156c565b7f97667070c54ef182b0f5858b034beac1b6f3089aa2d3188bb1e8929f4fa9b929610aa281610c8a565b606980546001600160a01b0319166001600160a01b0384161790555050565b600082815260a16020526040902060010154610adc81610c8a565b61066c8383610f43565b6001600160a01b03918216600090815260346020908152604080832093909416825291909152205490565b6001600160a01b03163b151590565b6001600160a01b038316610b825760405162461bcd60e51b8152602060048201526024808201527f45524332303a20617070726f76652066726f6d20746865207a65726f206164646044820152637265737360e01b6064820152608401610716565b6001600160a01b038216610be35760405162461bcd60e51b815260206004820152602260248201527f45524332303a20617070726f766520746f20746865207a65726f206164647265604482015261737360f01b6064820152608401610716565b6001600160a01b0383811660008181526034602090815260408083209487168084529482529182902085905590518481527f8c5be1e5ebec7d5bd14f71427d1e84f3dd0314c0f7b2291e5b200ac8c7c3b925910160405180910390a3505050565b6000808411801561067d5750606654821480610c61575060655482145b80610c6b57508282145b8061067d57506067548214801561067d57506068548314949350505050565b610c94813361157a565b50565b6001600160a01b038316610cfb5760405162461bcd60e51b815260206004820152602560248201527f45524332303a207472616e736665722066726f6d20746865207a65726f206164604482015264647265737360d81b6064820152608401610716565b6001600160a01b038216610d5d5760405162461bcd60e51b815260206004820152602360248201527f45524332303a207472616e7366657220746f20746865207a65726f206164647260448201526265737360e81b6064820152608401610716565b610d688383836115de565b6001600160a01b03831660009081526033602052604090205481811015610de05760405162461bcd60e51b815260206004820152602660248201527f45524332303a207472616e7366657220616d6f756e7420657863656564732062604482015265616c616e636560d01b6064820152608401610716565b6001600160a01b03808516600090815260336020526040808220858503905591851681529081208054849290610e17908490612150565b92505081905550826001600160a01b0316846001600160a01b03167fddf252ad1be2c89b69c2b068fc378daa952ba7f163c4a11628f55a4df523b3ef84604051610e6391815260200190565b60405180910390a3610e76848484611631565b50505050565b610e86828261090d565b6106a657600082815260a1602090815260408083206001600160a01b03851684529091529020805460ff19166001179055610ebe3390565b6001600160a01b0316816001600160a01b0316837f2f8788117e7eff1d82e926ec794901d17c78024a50270940304540a733656f0d60405160405180910390a45050565b805160005b8181101561066c57610f3b30848381518110610f2557610f25612168565b6020026020010151670de0b6b3a7640000610c97565b600101610f07565b610f4d828261090d565b156106a657600082815260a1602090815260408083206001600160a01b0385168085529252808320805460ff1916905551339285917ff6391f5c32d9c69d2a47ea670b442974b53935d1edc7fd64eb21e047a839171b9190a45050565b6001600160a01b0382166110005760405162461bcd60e51b815260206004820152601f60248201527f45524332303a206d696e7420746f20746865207a65726f2061646472657373006044820152606401610716565b61100c600083836115de565b806035600082825461101e9190612150565b90915550506001600160a01b0382166000908152603360205260408120805483929061104b908490612150565b90915550506040518181526001600160a01b038316906000907fddf252ad1be2c89b69c2b068fc378daa952ba7f163c4a11628f55a4df523b3ef9060200160405180910390a36106a660008383611631565b600080600084116110e95760405162461bcd60e51b81526020600482015260166024820152750536e617073686f747461626c653a20696420697320360541b6044820152606401610716565b606b5484111561113b5760405162461bcd60e51b815260206004820152601d60248201527f536e617073686f747461626c653a206e6f6e6578697374656e742069640000006044820152606401610716565b60006111478486611659565b845490915081141561115e57600092509050610845565b600192509050610845565b60008054610100900460ff16156111b0578160ff16600114801561118c5750303b155b6111a85760405162461bcd60e51b81526004016107169061217e565b506000919050565b60005460ff8084169116106111d75760405162461bcd60e51b81526004016107169061217e565b506000805460ff191660ff92909216919091179055600190565b6111fb828261171c565b50507f307a5ff72e442b798b18d109baae15fe48b6d3690fd14c03015a2f47dd89e2f16065557f14480ae0991a8fe24c1733177e7d71ec79d1f142a7f0e5971a3b930e177598176066557f84d5b933b93417199db826f5da9d5b1189791cb2dfd61240824c7e46b055f03d6067557f1417f6a224499a6e3918f776fd5ff7d6d29c2d693d9862a904be8a74faad51f1606855565b600054610100900460ff166112b65760405162461bcd60e51b8152600401610716906121cc565b565b6106a68282610e7c565b8115806112d657506112d6606554826105e1565b6113355760405162461bcd60e51b815260206004820152602a60248201527f5368617265686f6c64657252656769737472793a206164647265737320686173604482015269206e6f20746f6b656e7360b01b6064820152608401610716565b6001600160a01b0381166000908152606a602052604090205461135982828561174d565b6001600160a01b0382166000908152606a6020526040902083905561137f828285611761565b60408051828152602081018590526001600160a01b038416917f63d1f3ab699618c7d6d972a3c28f0d08fa090bebc96a34c3a30e5fcda6397ab2910160405180910390a2505050565b42606b8190556040519081526000907f8030e83b04d87bef53480e26263266d6ca66863aa8506aca6f2559d18aa1cb679060200160405180910390a150606b5490565b6001600160a01b03821661146b5760405162461bcd60e51b815260206004820152602160248201527f45524332303a206275726e2066726f6d20746865207a65726f206164647265736044820152607360f81b6064820152608401610716565b611477826000836115de565b6001600160a01b038216600090815260336020526040902054818110156114eb5760405162461bcd60e51b815260206004820152602260248201527f45524332303a206275726e20616d6f756e7420657863656564732062616c616e604482015261636560f01b6064820152608401610716565b6001600160a01b038316600090815260336020526040812083830390556035805484929061151a908490612217565b90915550506040518281526000906001600160a01b038516907fddf252ad1be2c89b69c2b068fc378daa952ba7f163c4a11628f55a4df523b3ef9060200160405180910390a361066c83600084611631565b6000336105d7818585610c97565b611584828261090d565b6106a65761159c816001600160a01b031660146117ef565b6115a78360206117ef565b6040516020016115b892919061222e565b60408051601f198184030181529082905262461bcd60e51b825261071691600401611dc2565b6115e983838361198b565b6001600160a01b0383166116085761160082611ad3565b61066c611b78565b6001600160a01b03821661161f5761160083611ad3565b61162883611ad3565b61066c82611ad3565b6001600160a01b03831660009081526033602052604090205461066c5761066c6000846112c2565b815460009061166a57506000610531565b82546000905b808210156116c65760006116848383611bd4565b90508486828154811061169957611699612168565b906000526020600020015411156116b2578091506116c0565b6116bd816001612150565b92505b50611670565b6000821180156116fb575083856116de600185612217565b815481106116ee576116ee612168565b9060005260206000200154145b156117145761170b600183612217565b92505050610531565b509050610531565b600054610100900460ff166117435760405162461bcd60e51b8152600401610716906121cc565b6106a68282611bef565b611758838383611c3d565b61066c83611ad3565b61176f600183606754610c44565b1580156117855750611785600182606754610c44565b1561066c57606954604051634693feab60e01b81526001600160a01b03858116600483015290911690634693feab906024015b600060405180830381600087803b1580156117d257600080fd5b505af11580156117e6573d6000803e3d6000fd5b50505050505050565b606060006117fe8360026122a3565b611809906002612150565b67ffffffffffffffff81111561182157611821611edd565b6040519080825280601f01601f19166020018201604052801561184b576020820181803683370190505b509050600360fc1b8160008151811061186657611866612168565b60200101906001600160f81b031916908160001a905350600f60fb1b8160018151811061189557611895612168565b60200101906001600160f81b031916908160001a90535060006118b98460026122a3565b6118c4906001612150565b90505b600181111561193c576f181899199a1a9b1b9c1cb0b131b232b360811b85600f16601081106118f8576118f8612168565b1a60f81b82828151811061190e5761190e612168565b60200101906001600160f81b031916908160001a90535060049490941c93611935816122c2565b90506118c7565b5083156106105760405162461bcd60e51b815260206004820181905260248201527f537472696e67733a20686578206c656e67746820696e73756666696369656e746044820152606401610716565b61199d670de0b6b3a7640000826122d9565b6119af90670de0b6b3a76400006122a3565b8114611a0f5760405162461bcd60e51b815260206004820152602960248201527f5368617265686f6c64657252656769737472793a204e6f206672616374696f6e604482015268616c20746f6b656e7360b81b6064820152608401610716565b6001600160a01b038216600090815260336020526040902054158015611a3c575080670de0b6b3a7640000145b80611a4f57506001600160a01b03821630145b80611a6157506001600160a01b038216155b61066c5760405162461bcd60e51b815260206004820152603c60248201527f5368617265686f6c64657252656769737472793a204f6e6c792074686520444160448201527f4f2063616e2068617665206d6f7265207468616e2031207368617265000000006064820152608401610716565b6000611ade606b5490565b6001600160a01b0383166000908152606e6020526040902090915081611b0382611c99565b101561066c5780546001808201835560008381526020808220909301949094556040805180820182526001600160a01b0396909616808652606a845281862054875285526033835284205485830190815292810180548083018255908552919093209351600290910290930192835551910155565b6000611b83606b5490565b9050606c81611b9182611c99565b10156106a6578054600181810183556000838152602090209091018390558101611bba60355490565b815460018101835560009283526020909220909101555050565b6000611be360028484186122d9565b61061090848416612150565b600054610100900460ff16611c165760405162461bcd60e51b8152600401610716906121cc565b8151611c29906036906020850190611cdc565b50805161066c906037906020840190611cdc565b611c4b600183606754610c44565b8015611c625750611c60600182606754610c44565b155b1561066c5760695460405163d86f5a0760e01b81526001600160a01b0385811660048301529091169063d86f5a07906024016117b8565b8054600090611caa57506000919050565b81548290611cba90600190612217565b81548110611cca57611cca612168565b90600052602060002001549050919050565b828054611ce8906120ff565b90600052602060002090601f016020900481019282611d0a5760008555611d50565b82601f10611d2357805160ff1916838001178555611d50565b82800160010185558215611d50579182015b82811115611d50578251825591602001919060010190611d35565b5061096c9291505b8082111561096c5760008155600101611d58565b600060208284031215611d7e57600080fd5b81356001600160e01b03198116811461061057600080fd5b60005b83811015611db1578181015183820152602001611d99565b83811115610e765750506000910152565b6020815260008251806020840152611de1816040850160208701611d96565b601f01601f19169190910160400192915050565b6001600160a01b0381168114610c9457600080fd5b60008060408385031215611e1d57600080fd5b8235611e2881611df5565b946020939093013593505050565b60008060408385031215611e4957600080fd5b823591506020830135611e5b81611df5565b809150509250929050565b600080600060608486031215611e7b57600080fd5b8335611e8681611df5565b92506020840135611e9681611df5565b929592945050506040919091013590565b600060208284031215611eb957600080fd5b5035919050565b600060208284031215611ed257600080fd5b813561061081611df5565b634e487b7160e01b600052604160045260246000fd5b604051601f8201601f1916810167ffffffffffffffff81118282101715611f1c57611f1c611edd565b604052919050565b60006020808385031215611f3757600080fd5b823567ffffffffffffffff80821115611f4f57600080fd5b818501915085601f830112611f6357600080fd5b813581811115611f7557611f75611edd565b8060051b9150611f86848301611ef3565b8181529183018401918481019088841115611fa057600080fd5b938501935b83851015611fca5784359250611fba83611df5565b8282529385019390850190611fa5565b98975050505050505050565b600080600060608486031215611feb57600080fd5b833592506020840135611e9681611df5565b600082601f83011261200e57600080fd5b813567ffffffffffffffff81111561202857612028611edd565b61203b601f8201601f1916602001611ef3565b81815284602083860101111561205057600080fd5b816020850160208301376000918101602001919091529392505050565b6000806040838503121561208057600080fd5b823567ffffffffffffffff8082111561209857600080fd5b6120a486838701611ffd565b935060208501359150808211156120ba57600080fd5b506120c785828601611ffd565b9150509250929050565b600080604083850312156120e457600080fd5b82356120ef81611df5565b91506020830135611e5b81611df5565b600181811c9082168061211357607f821691505b6020821081141561213457634e487b7160e01b600052602260045260246000fd5b50919050565b634e487b7160e01b600052601160045260246000fd5b600082198211156121635761216361213a565b500190565b634e487b7160e01b600052603260045260246000fd5b6020808252602e908201527f496e697469616c697a61626c653a20636f6e747261637420697320616c72656160408201526d191e481a5b9a5d1a585b1a5e995960921b606082015260800190565b6020808252602b908201527f496e697469616c697a61626c653a20636f6e7472616374206973206e6f74206960408201526a6e697469616c697a696e6760a81b606082015260800190565b6000828210156122295761222961213a565b500390565b7f416363657373436f6e74726f6c3a206163636f756e7420000000000000000000815260008351612266816017850160208801611d96565b7001034b99036b4b9b9b4b733903937b6329607d1b6017918401918201528351612297816028840160208801611d96565b01602801949350505050565b60008160001904831182151516156122bd576122bd61213a565b500290565b6000816122d1576122d161213a565b506000190190565b6000826122f657634e487b7160e01b600052601260045260246000fd5b50049056fe7b97752341782019d21e7c1027eedcd270e56f5b672dcc28d53bf58a346002fca26469706673582212208b21d82b2a5427f7f3a0d96c6ffe07a8f65c8ae734c12166b377107613da39e064736f6c634300080b0033496e697469616c697a61626c653a20636f6e747261637420697320616c726561",
  "linkReferences": {},
  "deployedLinkReferences": {}
}